{
  "contractName": "ChangeMe",
  "abi": [
    {
      "inputs": [
        {
          "internalType": "address",
          "name": "_router",
          "type": "address"
        },
        {
          "internalType": "address",
          "name": "_marketingFeeReceiver",
          "type": "address"
        },
        {
          "internalType": "address",
          "name": "_developmentFeeReceiver",
          "type": "address"
        }
      ],
      "stateMutability": "nonpayable",
      "type": "constructor"
    },
    {
      "anonymous": false,
      "inputs": [
        {
          "indexed": true,
          "internalType": "address",
          "name": "owner",
          "type": "address"
        },
        {
          "indexed": true,
          "internalType": "address",
          "name": "spender",
          "type": "address"
        },
        {
          "indexed": false,
          "internalType": "uint256",
          "name": "value",
          "type": "uint256"
        }
      ],
      "name": "Approval",
      "type": "event"
    },
    {
      "anonymous": false,
      "inputs": [
        {
          "indexed": true,
          "internalType": "address",
          "name": "previousOwner",
          "type": "address"
        },
        {
          "indexed": true,
          "internalType": "address",
          "name": "newOwner",
          "type": "address"
        }
      ],
      "name": "OwnershipTransferred",
      "type": "event"
    },
    {
      "anonymous": false,
      "inputs": [
        {
          "indexed": false,
          "internalType": "uint256",
          "name": "amountIn",
          "type": "uint256"
        },
        {
          "indexed": false,
          "internalType": "address[]",
          "name": "path",
          "type": "address[]"
        }
      ],
      "name": "SwapTokensForETH",
      "type": "event"
    },
    {
      "anonymous": false,
      "inputs": [
        {
          "indexed": true,
          "internalType": "address",
          "name": "from",
          "type": "address"
        },
        {
          "indexed": true,
          "internalType": "address",
          "name": "to",
          "type": "address"
        },
        {
          "indexed": false,
          "internalType": "uint256",
          "name": "value",
          "type": "uint256"
        }
      ],
      "name": "Transfer",
      "type": "event"
    },
    {
      "inputs": [],
      "name": "DEAD",
      "outputs": [
        {
          "internalType": "address",
          "name": "",
          "type": "address"
        }
      ],
      "stateMutability": "view",
      "type": "function"
    },
    {
      "inputs": [],
      "name": "_maxTxAmount",
      "outputs": [
        {
          "internalType": "uint256",
          "name": "",
          "type": "uint256"
        }
      ],
      "stateMutability": "view",
      "type": "function"
    },
    {
      "inputs": [],
      "name": "developmentFee",
      "outputs": [
        {
          "internalType": "uint256",
          "name": "",
          "type": "uint256"
        }
      ],
      "stateMutability": "view",
      "type": "function"
    },
    {
      "inputs": [],
      "name": "getTime",
      "outputs": [
        {
          "internalType": "uint256",
          "name": "",
          "type": "uint256"
        }
      ],
      "stateMutability": "view",
      "type": "function"
    },
    {
      "inputs": [],
      "name": "getUnlockTime",
      "outputs": [
        {
          "internalType": "uint256",
          "name": "",
          "type": "uint256"
        }
      ],
      "stateMutability": "view",
      "type": "function"
    },
    {
      "inputs": [
        {
          "internalType": "uint256",
          "name": "time",
          "type": "uint256"
        }
      ],
      "name": "lock",
      "outputs": [],
      "stateMutability": "nonpayable",
      "type": "function"
    },
    {
      "inputs": [],
      "name": "marketingFee",
      "outputs": [
        {
          "internalType": "uint256",
          "name": "",
          "type": "uint256"
        }
      ],
      "stateMutability": "view",
      "type": "function"
    },
    {
      "inputs": [],
      "name": "owner",
      "outputs": [
        {
          "internalType": "address",
          "name": "",
          "type": "address"
        }
      ],
      "stateMutability": "view",
      "type": "function"
    },
    {
      "inputs": [],
      "name": "renounceOwnership",
      "outputs": [],
      "stateMutability": "nonpayable",
      "type": "function"
    },
    {
      "inputs": [],
      "name": "rewardFee",
      "outputs": [
        {
          "internalType": "uint256",
          "name": "",
          "type": "uint256"
        }
      ],
      "stateMutability": "view",
      "type": "function"
    },
    {
      "inputs": [
        {
          "internalType": "address",
          "name": "newOwner",
          "type": "address"
        }
      ],
      "name": "transferOwnership",
      "outputs": [],
      "stateMutability": "nonpayable",
      "type": "function"
    },
    {
      "inputs": [],
      "name": "uniswapV2Pair",
      "outputs": [
        {
          "internalType": "address",
          "name": "",
          "type": "address"
        }
      ],
      "stateMutability": "view",
      "type": "function"
    },
    {
      "inputs": [],
      "name": "uniswapV2Router",
      "outputs": [
        {
          "internalType": "contract IUniswapV2Router",
          "name": "",
          "type": "address"
        }
      ],
      "stateMutability": "view",
      "type": "function"
    },
    {
      "inputs": [],
      "name": "unlock",
      "outputs": [],
      "stateMutability": "nonpayable",
      "type": "function"
    },
    {
      "stateMutability": "payable",
      "type": "receive"
    },
    {
      "inputs": [],
      "name": "name",
      "outputs": [
        {
          "internalType": "string",
          "name": "",
          "type": "string"
        }
      ],
      "stateMutability": "view",
      "type": "function"
    },
    {
      "inputs": [],
      "name": "symbol",
      "outputs": [
        {
          "internalType": "string",
          "name": "",
          "type": "string"
        }
      ],
      "stateMutability": "view",
      "type": "function"
    },
    {
      "inputs": [],
      "name": "decimals",
      "outputs": [
        {
          "internalType": "uint8",
          "name": "",
          "type": "uint8"
        }
      ],
      "stateMutability": "view",
      "type": "function"
    },
    {
      "inputs": [],
      "name": "totalSupply",
      "outputs": [
        {
          "internalType": "uint256",
          "name": "",
          "type": "uint256"
        }
      ],
      "stateMutability": "view",
      "type": "function"
    },
    {
      "inputs": [
        {
          "internalType": "address",
          "name": "account",
          "type": "address"
        }
      ],
      "name": "balanceOf",
      "outputs": [
        {
          "internalType": "uint256",
          "name": "",
          "type": "uint256"
        }
      ],
      "stateMutability": "view",
      "type": "function"
    },
    {
      "inputs": [
        {
          "internalType": "address",
          "name": "owner",
          "type": "address"
        },
        {
          "internalType": "address",
          "name": "spender",
          "type": "address"
        }
      ],
      "name": "allowance",
      "outputs": [
        {
          "internalType": "uint256",
          "name": "",
          "type": "uint256"
        }
      ],
      "stateMutability": "view",
      "type": "function"
    },
    {
      "inputs": [
        {
          "internalType": "address",
          "name": "spender",
          "type": "address"
        },
        {
          "internalType": "uint256",
          "name": "amount",
          "type": "uint256"
        }
      ],
      "name": "approve",
      "outputs": [
        {
          "internalType": "bool",
          "name": "",
          "type": "bool"
        }
      ],
      "stateMutability": "nonpayable",
      "type": "function"
    },
    {
      "inputs": [
        {
          "internalType": "address",
          "name": "recipient",
          "type": "address"
        },
        {
          "internalType": "uint256",
          "name": "amount",
          "type": "uint256"
        }
      ],
      "name": "transfer",
      "outputs": [
        {
          "internalType": "bool",
          "name": "",
          "type": "bool"
        }
      ],
      "stateMutability": "nonpayable",
      "type": "function"
    },
    {
      "inputs": [
        {
          "internalType": "address",
          "name": "sender",
          "type": "address"
        },
        {
          "internalType": "address",
          "name": "recipient",
          "type": "address"
        },
        {
          "internalType": "uint256",
          "name": "amount",
          "type": "uint256"
        }
      ],
      "name": "transferFrom",
      "outputs": [
        {
          "internalType": "bool",
          "name": "",
          "type": "bool"
        }
      ],
      "stateMutability": "nonpayable",
      "type": "function"
    },
    {
      "inputs": [
        {
          "internalType": "uint256",
          "name": "_minimumBalanceBeforeDistributeBack",
          "type": "uint256"
        }
      ],
      "name": "setMinimumBalanceBeforeDistributeBack",
      "outputs": [],
      "stateMutability": "nonpayable",
      "type": "function"
    },
    {
      "inputs": [
        {
          "internalType": "address",
          "name": "holder",
          "type": "address"
        },
        {
          "internalType": "bool",
          "name": "exempt",
          "type": "bool"
        }
      ],
      "name": "setIsFeeExempt",
      "outputs": [],
      "stateMutability": "nonpayable",
      "type": "function"
    },
    {
      "inputs": [
        {
          "internalType": "address",
          "name": "holder",
          "type": "address"
        },
        {
          "internalType": "bool",
          "name": "exempt",
          "type": "bool"
        }
      ],
      "name": "setIsTxLimitExempt",
      "outputs": [],
      "stateMutability": "nonpayable",
      "type": "function"
    },
    {
      "inputs": [
        {
          "internalType": "uint256",
          "name": "_marketingFee",
          "type": "uint256"
        },
        {
          "internalType": "uint256",
          "name": "_developmentFee",
          "type": "uint256"
        },
        {
          "internalType": "uint256",
          "name": "_rewardFee",
          "type": "uint256"
        }
      ],
      "name": "setFees",
      "outputs": [],
      "stateMutability": "nonpayable",
      "type": "function"
    },
    {
      "inputs": [
        {
          "internalType": "address",
          "name": "_marketingFeeReceiver",
          "type": "address"
        },
        {
          "internalType": "address",
          "name": "_developmentFeeReceiver",
          "type": "address"
        }
      ],
      "name": "setFeeReceivers",
      "outputs": [],
      "stateMutability": "nonpayable",
      "type": "function"
    },
    {
      "inputs": [
        {
          "internalType": "uint256",
          "name": "_minPeriod",
          "type": "uint256"
        },
        {
          "internalType": "uint256",
          "name": "_minDistribution",
          "type": "uint256"
        }
      ],
      "name": "setDistributionCriteria",
      "outputs": [],
      "stateMutability": "nonpayable",
      "type": "function"
    },
    {
      "inputs": [
        {
          "internalType": "uint256",
          "name": "gas",
          "type": "uint256"
        }
      ],
      "name": "setDistributorSettings",
      "outputs": [],
      "stateMutability": "nonpayable",
      "type": "function"
    },
    {
      "inputs": [],
      "name": "manualDistributorDeposit",
      "outputs": [],
      "stateMutability": "payable",
      "type": "function"
    },
    {
      "inputs": [
        {
          "internalType": "address",
          "name": "_shareholder",
          "type": "address"
        }
      ],
      "name": "manualGetUnpaidShares",
      "outputs": [],
      "stateMutability": "view",
      "type": "function"
    },
    {
      "inputs": [
        {
          "internalType": "address",
          "name": "_shareholder",
          "type": "address"
        }
      ],
      "name": "readShares",
      "outputs": [
        {
          "internalType": "uint256",
          "name": "",
          "type": "uint256"
        }
      ],
      "stateMutability": "view",
      "type": "function"
    },
    {
      "inputs": [
        {
          "internalType": "address",
          "name": "_router",
          "type": "address"
        }
      ],
      "name": "changeRouterVersion",
      "outputs": [
        {
          "internalType": "address",
          "name": "_pair",
          "type": "address"
        }
      ],
      "stateMutability": "nonpayable",
      "type": "function"
    }
  ],
  "bytecode": "0x608060405261dead600360006101000a81548173ffffffffffffffffffffffffffffffffffffffff021916908373ffffffffffffffffffffffffffffffffffffffff1602179055506040518060400160405280600881526020017f4368616e67654d65000000000000000000000000000000000000000000000000815250600490805190602001906200009492919062000ac1565b506040518060400160405280600681526020017f4368616e6765000000000000000000000000000000000000000000000000000081525060059080519060200190620000e292919062000ac1565b506009600660006101000a81548160ff021916908360ff160217905550600660009054906101000a900460ff16600a6200011d919062000dd6565b66038d7ea4c6800062000131919062000f13565b600855600660009054906101000a900460ff16600a62000152919062000dd6565b6401bf08eb0062000164919062000f13565b600955620001856009546008546200094460201b62001fea1790919060201c565b600a55620001a66101906008546200099660201b620020341790919060201c565b600b55600660009054906101000a900460ff16600a620001c7919062000dd6565b64e8d4a51000620001d9919062000f13565b600c55680ad78ebc5ac6200000600d556005601555600560165560026017556207a120601b553480156200020c57600080fd5b506040516200748038038062007480833981810160405281019062000232919062000bc2565b600062000244620009e860201b60201c565b9050806000806101000a81548173ffffffffffffffffffffffffffffffffffffffff021916908373ffffffffffffffffffffffffffffffffffffffff1602179055508073ffffffffffffffffffffffffffffffffffffffff16600073ffffffffffffffffffffffffffffffffffffffff167f8be0079c531659141344cd1fd0a4f28419497f9722a3daafe3b4186f6b6457e060405160405180910390a35082600e60006101000a81548173ffffffffffffffffffffffffffffffffffffffff021916908373ffffffffffffffffffffffffffffffffffffffff160217905550600e60009054906101000a900473ffffffffffffffffffffffffffffffffffffffff1673ffffffffffffffffffffffffffffffffffffffff1663c45a01556040518163ffffffff1660e01b815260040160206040518083038186803b1580156200038c57600080fd5b505afa158015620003a1573d6000803e3d6000fd5b505050506040513d601f19601f82011682018060405250810190620003c7919062000b96565b73ffffffffffffffffffffffffffffffffffffffff1663c9c6539630600e60009054906101000a900473ffffffffffffffffffffffffffffffffffffffff1673ffffffffffffffffffffffffffffffffffffffff1663ad5c46486040518163ffffffff1660e01b815260040160206040518083038186803b1580156200044c57600080fd5b505afa15801562000461573d6000803e3d6000fd5b505050506040513d601f19601f8201168201806040525081019062000487919062000b96565b6040518363ffffffff1660e01b8152600401620004a692919062000c8c565b602060405180830381600087803b158015620004c157600080fd5b505af1158015620004d6573d6000803e3d6000fd5b505050506040513d601f19601f82011682018060405250810190620004fc919062000b96565b600f60006101000a81548173ffffffffffffffffffffffffffffffffffffffff021916908373ffffffffffffffffffffffffffffffffffffffff160217905550600e60009054906101000a900473ffffffffffffffffffffffffffffffffffffffff166200056f620009e860201b60201c565b6040516200057d9062000b52565b6200058a92919062000cb9565b604051809103906000f080158015620005a7573d6000803e3d6000fd5b50601a60006101000a81548173ffffffffffffffffffffffffffffffffffffffff021916908373ffffffffffffffffffffffffffffffffffffffff1602179055506001601260003373ffffffffffffffffffffffffffffffffffffffff1673ffffffffffffffffffffffffffffffffffffffff16815260200190815260200160002060006101000a81548160ff0219169083151502179055506001601460003373ffffffffffffffffffffffffffffffffffffffff1673ffffffffffffffffffffffffffffffffffffffff16815260200190815260200160002060006101000a81548160ff021916908315150217905550600160136000600f60009054906101000a900473ffffffffffffffffffffffffffffffffffffffff1673ffffffffffffffffffffffffffffffffffffffff1673ffffffffffffffffffffffffffffffffffffffff16815260200190815260200160002060006101000a81548160ff0219169083151502179055506001601360003073ffffffffffffffffffffffffffffffffffffffff1673ffffffffffffffffffffffffffffffffffffffff16815260200190815260200160002060006101000a81548160ff021916908315150217905550600160136000600360009054906101000a900473ffffffffffffffffffffffffffffffffffffffff1673ffffffffffffffffffffffffffffffffffffffff1673ffffffffffffffffffffffffffffffffffffffff16815260200190815260200160002060006101000a81548160ff02191690831515021790555081601860006101000a81548173ffffffffffffffffffffffffffffffffffffffff021916908373ffffffffffffffffffffffffffffffffffffffff16021790555080601960006101000a81548173ffffffffffffffffffffffffffffffffffffffff021916908373ffffffffffffffffffffffffffffffffffffffff16021790555042600781905550600a546010600062000884620009e860201b60201c565b73ffffffffffffffffffffffffffffffffffffffff1673ffffffffffffffffffffffffffffffffffffffff16815260200190815260200160002081905550620008d2620009e860201b60201c565b73ffffffffffffffffffffffffffffffffffffffff16600073ffffffffffffffffffffffffffffffffffffffff167fddf252ad1be2c89b69c2b068fc378daa952ba7f163c4a11628f55a4df523b3ef600a5460405162000933919062000d0a565b60405180910390a350505062001167565b60006200098e83836040518060400160405280601e81526020017f536166654d6174683a207375627472616374696f6e206f766572666c6f770000815250620009f060201b60201c565b905092915050565b6000620009e083836040518060400160405280601a81526020017f536166654d6174683a206469766973696f6e206279207a65726f00000000000081525062000a5960201b60201c565b905092915050565b600033905090565b600083831115829062000a3b576040517f08c379a000000000000000000000000000000000000000000000000000000000815260040162000a32919062000ce6565b60405180910390fd5b506000838562000a4c919062000f74565b9050809150509392505050565b6000808311829062000aa3576040517f08c379a000000000000000000000000000000000000000000000000000000000815260040162000a9a919062000ce6565b60405180910390fd5b506000838562000ab4919062000d43565b9050809150509392505050565b82805462000acf906200106c565b90600052602060002090601f01602090048101928262000af3576000855562000b3f565b82601f1062000b0e57805160ff191683800117855562000b3f565b8280016001018555821562000b3f579182015b8281111562000b3e57825182559160200191906001019062000b21565b5b50905062000b4e919062000b60565b5090565b611cae80620057d283390190565b5b8082111562000b7b57600081600090555060010162000b61565b5090565b60008151905062000b90816200114d565b92915050565b60006020828403121562000ba957600080fd5b600062000bb98482850162000b7f565b91505092915050565b60008060006060848603121562000bd857600080fd5b600062000be88682870162000b7f565b935050602062000bfb8682870162000b7f565b925050604062000c0e8682870162000b7f565b9150509250925092565b62000c238162000ffa565b82525050565b62000c348162000faf565b82525050565b600062000c478262000d27565b62000c53818562000d32565b935062000c6581856020860162001036565b62000c70816200112f565b840191505092915050565b62000c868162000fe3565b82525050565b600060408201905062000ca3600083018562000c29565b62000cb2602083018462000c29565b9392505050565b600060408201905062000cd0600083018562000c29565b62000cdf602083018462000c18565b9392505050565b6000602082019050818103600083015262000d02818462000c3a565b905092915050565b600060208201905062000d21600083018462000c7b565b92915050565b600081519050919050565b600082825260208201905092915050565b600062000d508262000fe3565b915062000d5d8362000fe3565b92508262000d705762000d6f620010d1565b5b828204905092915050565b6000808291508390505b600185111562000dcd5780860481111562000da55762000da4620010a2565b5b600185161562000db55780820291505b808102905062000dc58562001140565b945062000d85565b94509492505050565b600062000de38262000fe3565b915062000df08362000fed565b925062000e1f7fffffffffffffffffffffffffffffffffffffffffffffffffffffffffffffffff848462000e27565b905092915050565b60008262000e39576001905062000f0c565b8162000e49576000905062000f0c565b816001811462000e62576002811462000e6d5762000ea3565b600191505062000f0c565b60ff84111562000e825762000e81620010a2565b5b8360020a91508482111562000e9c5762000e9b620010a2565b5b5062000f0c565b5060208310610133831016604e8410600b841016171562000edd5782820a90508381111562000ed75762000ed6620010a2565b5b62000f0c565b62000eec848484600162000d7b565b9250905081840481111562000f065762000f05620010a2565b5b81810290505b9392505050565b600062000f208262000fe3565b915062000f2d8362000fe3565b9250817fffffffffffffffffffffffffffffffffffffffffffffffffffffffffffffffff048311821515161562000f695762000f68620010a2565b5b828202905092915050565b600062000f818262000fe3565b915062000f8e8362000fe3565b92508282101562000fa45762000fa3620010a2565b5b828203905092915050565b600062000fbc8262000fc3565b9050919050565b600073ffffffffffffffffffffffffffffffffffffffff82169050919050565b6000819050919050565b600060ff82169050919050565b600062001007826200100e565b9050919050565b60006200101b8262001022565b9050919050565b60006200102f8262000fc3565b9050919050565b60005b838110156200105657808201518184015260208101905062001039565b8381111562001066576000848401525b50505050565b600060028204905060018216806200108557607f821691505b602082108114156200109c576200109b62001100565b5b50919050565b7f4e487b7100000000000000000000000000000000000000000000000000000000600052601160045260246000fd5b7f4e487b7100000000000000000000000000000000000000000000000000000000600052601260045260246000fd5b7f4e487b7100000000000000000000000000000000000000000000000000000000600052602260045260246000fd5b6000601f19601f8301169050919050565b60008160011c9050919050565b620011588162000faf565b81146200116457600080fd5b50565b61465b80620011776000396000f3fe6080604052600436106101fd5760003560e01c8063715018a61161010d578063a69df4b5116100a0578063dd4670641161006f578063dd467064146106ff578063dd62ed3e14610728578063e5960d9914610765578063f2fde38b1461078e578063f84ba65d146107b757610204565b8063a69df4b514610645578063a9059cbb1461065c578063cec10c1114610699578063dc4495a4146106c257610204565b806395d89b41116100dc57806395d89b411461059d5780639d1944f5146105c8578063a4b45c00146105f1578063a5f3d0031461061a57610204565b8063715018a6146105055780637d1db4a51461051c5780638b424267146105475780638da5cb5b1461057257610204565b80632dd9fc5d116101905780635881f3ef1161015f5780635881f3ef1461040c578063602bc62b14610449578063658d4b7f146104745780636b67c4df1461049d57806370a08231146104c857610204565b80632dd9fc5d14610362578063313ce5671461038b57806349bd5a5e146103b6578063557ed1ba146103e157610204565b80631694505e116101cc5780631694505e146102a657806318160ddd146102d157806323b872dd146102fc5780632d48e8961461033957610204565b806303fd2a451461020957806306fdde0314610234578063095ea7b31461025f578063119fb27e1461029c57610204565b3661020457005b600080fd5b34801561021557600080fd5b5061021e6107e0565b60405161022b9190613c2d565b60405180910390f35b34801561024057600080fd5b50610249610806565b6040516102569190613cd0565b60405180910390f35b34801561026b57600080fd5b5061028660048036038101906102819190613835565b610898565b6040516102939190613c9a565b60405180910390f35b6102a46108b6565b005b3480156102b257600080fd5b506102bb6109d3565b6040516102c89190613cb5565b60405180910390f35b3480156102dd57600080fd5b506102e66109f9565b6040516102f39190613e92565b60405180910390f35b34801561030857600080fd5b50610323600480360381019061031e91906137aa565b610a03565b6040516103309190613c9a565b60405180910390f35b34801561034557600080fd5b50610360600480360381019061035b91906138c3565b610ae3565b005b34801561036e57600080fd5b5061038960048036038101906103849190613871565b610c0b565b005b34801561039757600080fd5b506103a0610caa565b6040516103ad9190613f60565b60405180910390f35b3480156103c257600080fd5b506103cb610cc1565b6040516103d89190613c2d565b60405180910390f35b3480156103ed57600080fd5b506103f6610ce7565b6040516104039190613e92565b60405180910390f35b34801561041857600080fd5b50610433600480360381019061042e919061371c565b610cef565b6040516104409190613c2d565b60405180910390f35b34801561045557600080fd5b5061045e611159565b60405161046b9190613e92565b60405180910390f35b34801561048057600080fd5b5061049b600480360381019061049691906137f9565b611163565b005b3480156104a957600080fd5b506104b2611253565b6040516104bf9190613e92565b60405180910390f35b3480156104d457600080fd5b506104ef60048036038101906104ea919061371c565b611259565b6040516104fc9190613e92565b60405180910390f35b34801561051157600080fd5b5061051a6112a2565b005b34801561052857600080fd5b506105316113f5565b60405161053e9190613e92565b60405180910390f35b34801561055357600080fd5b5061055c6113fb565b6040516105699190613e92565b60405180910390f35b34801561057e57600080fd5b50610587611401565b6040516105949190613c2d565b60405180910390f35b3480156105a957600080fd5b506105b261142a565b6040516105bf9190613cd0565b60405180910390f35b3480156105d457600080fd5b506105ef60048036038101906105ea9190613871565b6114bc565b005b3480156105fd57600080fd5b506106186004803603810190610613919061376e565b61156a565b005b34801561062657600080fd5b5061062f611685565b60405161063c9190613e92565b60405180910390f35b34801561065157600080fd5b5061065a61168b565b005b34801561066857600080fd5b50610683600480360381019061067e9190613835565b61185f565b6040516106909190613c9a565b60405180910390f35b3480156106a557600080fd5b506106c060048036038101906106bb91906138ff565b61187d565b005b3480156106ce57600080fd5b506106e960048036038101906106e4919061371c565b611987565b6040516106f69190613e92565b60405180910390f35b34801561070b57600080fd5b5061072660048036038101906107219190613871565b611a3b565b005b34801561073457600080fd5b5061074f600480360381019061074a919061376e565b611c02565b60405161075c9190613e92565b60405180910390f35b34801561077157600080fd5b5061078c6004803603810190610787919061371c565b611c89565b005b34801561079a57600080fd5b506107b560048036038101906107b0919061371c565b611d38565b005b3480156107c357600080fd5b506107de60048036038101906107d991906137f9565b611efa565b005b600360009054906101000a900473ffffffffffffffffffffffffffffffffffffffff1681565b606060048054610815906141a3565b80601f0160208091040260200160405190810160405280929190818152602001828054610841906141a3565b801561088e5780601f106108635761010080835404028352916020019161088e565b820191906000526020600020905b81548152906001019060200180831161087157829003601f168201915b5050505050905090565b60006108ac6108a561207e565b8484612086565b6001905092915050565b6108be61207e565b73ffffffffffffffffffffffffffffffffffffffff1660008054906101000a900473ffffffffffffffffffffffffffffffffffffffff1673ffffffffffffffffffffffffffffffffffffffff161461094b576040517f08c379a000000000000000000000000000000000000000000000000000000000815260040161094290613dd2565b60405180910390fd5b601a60009054906101000a900473ffffffffffffffffffffffffffffffffffffffff1673ffffffffffffffffffffffffffffffffffffffff1663d0e30db0346040518263ffffffff1660e01b81526004016000604051808303818588803b1580156109b557600080fd5b505af1935050505080156109c7575060015b6109d0576109d1565b5b565b600e60009054906101000a900473ffffffffffffffffffffffffffffffffffffffff1681565b6000600a54905090565b6000610a17610a1061207e565b8484612251565b610ad884610a2361207e565b610ad3856040518060600160405280602881526020016145fe60289139601160008b73ffffffffffffffffffffffffffffffffffffffff1673ffffffffffffffffffffffffffffffffffffffff1681526020019081526020016000206000610a8961207e565b73ffffffffffffffffffffffffffffffffffffffff1673ffffffffffffffffffffffffffffffffffffffff16815260200190815260200160002054612bbd9092919063ffffffff16565b612086565b600190509392505050565b610aeb61207e565b73ffffffffffffffffffffffffffffffffffffffff1660008054906101000a900473ffffffffffffffffffffffffffffffffffffffff1673ffffffffffffffffffffffffffffffffffffffff1614610b78576040517f08c379a0000000000000000000000000000000000000000000000000000000008152600401610b6f90613dd2565b60405180910390fd5b601a60009054906101000a900473ffffffffffffffffffffffffffffffffffffffff1673ffffffffffffffffffffffffffffffffffffffff16632d48e89683836040518363ffffffff1660e01b8152600401610bd5929190613f37565b600060405180830381600087803b158015610bef57600080fd5b505af1158015610c03573d6000803e3d6000fd5b505050505050565b610c1361207e565b73ffffffffffffffffffffffffffffffffffffffff1660008054906101000a900473ffffffffffffffffffffffffffffffffffffffff1673ffffffffffffffffffffffffffffffffffffffff1614610ca0576040517f08c379a0000000000000000000000000000000000000000000000000000000008152600401610c9790613dd2565b60405180910390fd5b80600d8190555050565b6000600660009054906101000a900460ff16905090565b600f60009054906101000a900473ffffffffffffffffffffffffffffffffffffffff1681565b600042905090565b6000610cf961207e565b73ffffffffffffffffffffffffffffffffffffffff1660008054906101000a900473ffffffffffffffffffffffffffffffffffffffff1673ffffffffffffffffffffffffffffffffffffffff1614610d86576040517f08c379a0000000000000000000000000000000000000000000000000000000008152600401610d7d90613dd2565b60405180910390fd5b60008290508073ffffffffffffffffffffffffffffffffffffffff1663c45a01556040518163ffffffff1660e01b815260040160206040518083038186803b158015610dd157600080fd5b505afa158015610de5573d6000803e3d6000fd5b505050506040513d601f19601f82011682018060405250810190610e099190613745565b73ffffffffffffffffffffffffffffffffffffffff1663e6a43905308373ffffffffffffffffffffffffffffffffffffffff1663ad5c46486040518163ffffffff1660e01b815260040160206040518083038186803b158015610e6b57600080fd5b505afa158015610e7f573d6000803e3d6000fd5b505050506040513d601f19601f82011682018060405250810190610ea39190613745565b6040518363ffffffff1660e01b8152600401610ec0929190613c48565b60206040518083038186803b158015610ed857600080fd5b505afa158015610eec573d6000803e3d6000fd5b505050506040513d601f19601f82011682018060405250810190610f109190613745565b9150600073ffffffffffffffffffffffffffffffffffffffff168273ffffffffffffffffffffffffffffffffffffffff1614156110d1578073ffffffffffffffffffffffffffffffffffffffff1663c45a01556040518163ffffffff1660e01b815260040160206040518083038186803b158015610f8d57600080fd5b505afa158015610fa1573d6000803e3d6000fd5b505050506040513d601f19601f82011682018060405250810190610fc59190613745565b73ffffffffffffffffffffffffffffffffffffffff1663c9c65396308373ffffffffffffffffffffffffffffffffffffffff1663ad5c46486040518163ffffffff1660e01b815260040160206040518083038186803b15801561102757600080fd5b505afa15801561103b573d6000803e3d6000fd5b505050506040513d601f19601f8201168201806040525081019061105f9190613745565b6040518363ffffffff1660e01b815260040161107c929190613c48565b602060405180830381600087803b15801561109657600080fd5b505af11580156110aa573d6000803e3d6000fd5b505050506040513d601f19601f820116820180604052508101906110ce9190613745565b91505b81600f60006101000a81548173ffffffffffffffffffffffffffffffffffffffff021916908373ffffffffffffffffffffffffffffffffffffffff16021790555080600e60006101000a81548173ffffffffffffffffffffffffffffffffffffffff021916908373ffffffffffffffffffffffffffffffffffffffff16021790555050919050565b6000600254905090565b61116b61207e565b73ffffffffffffffffffffffffffffffffffffffff1660008054906101000a900473ffffffffffffffffffffffffffffffffffffffff1673ffffffffffffffffffffffffffffffffffffffff16146111f8576040517f08c379a00000000000000000000000000000000000000000000000000000000081526004016111ef90613dd2565b60405180910390fd5b80601260008473ffffffffffffffffffffffffffffffffffffffff1673ffffffffffffffffffffffffffffffffffffffff16815260200190815260200160002060006101000a81548160ff0219169083151502179055505050565b60155481565b6000601060008373ffffffffffffffffffffffffffffffffffffffff1673ffffffffffffffffffffffffffffffffffffffff168152602001908152602001600020549050919050565b6112aa61207e565b73ffffffffffffffffffffffffffffffffffffffff1660008054906101000a900473ffffffffffffffffffffffffffffffffffffffff1673ffffffffffffffffffffffffffffffffffffffff1614611337576040517f08c379a000000000000000000000000000000000000000000000000000000000815260040161132e90613dd2565b60405180910390fd5b600073ffffffffffffffffffffffffffffffffffffffff1660008054906101000a900473ffffffffffffffffffffffffffffffffffffffff1673ffffffffffffffffffffffffffffffffffffffff167f8be0079c531659141344cd1fd0a4f28419497f9722a3daafe3b4186f6b6457e060405160405180910390a360008060006101000a81548173ffffffffffffffffffffffffffffffffffffffff021916908373ffffffffffffffffffffffffffffffffffffffff160217905550565b600b5481565b60175481565b60008060009054906101000a900473ffffffffffffffffffffffffffffffffffffffff16905090565b606060058054611439906141a3565b80601f0160208091040260200160405190810160405280929190818152602001828054611465906141a3565b80156114b25780601f10611487576101008083540402835291602001916114b2565b820191906000526020600020905b81548152906001019060200180831161149557829003601f168201915b5050505050905090565b6114c461207e565b73ffffffffffffffffffffffffffffffffffffffff1660008054906101000a900473ffffffffffffffffffffffffffffffffffffffff1673ffffffffffffffffffffffffffffffffffffffff1614611551576040517f08c379a000000000000000000000000000000000000000000000000000000000815260040161154890613dd2565b60405180910390fd5b620b71b0811061156057600080fd5b80601b8190555050565b61157261207e565b73ffffffffffffffffffffffffffffffffffffffff1660008054906101000a900473ffffffffffffffffffffffffffffffffffffffff1673ffffffffffffffffffffffffffffffffffffffff16146115ff576040517f08c379a00000000000000000000000000000000000000000000000000000000081526004016115f690613dd2565b60405180910390fd5b81601860006101000a81548173ffffffffffffffffffffffffffffffffffffffff021916908373ffffffffffffffffffffffffffffffffffffffff16021790555080601960006101000a81548173ffffffffffffffffffffffffffffffffffffffff021916908373ffffffffffffffffffffffffffffffffffffffff1602179055505050565b60165481565b3373ffffffffffffffffffffffffffffffffffffffff16600160009054906101000a900473ffffffffffffffffffffffffffffffffffffffff1673ffffffffffffffffffffffffffffffffffffffff161461171b576040517f08c379a000000000000000000000000000000000000000000000000000000000815260040161171290613e72565b60405180910390fd5b600254421161175f576040517f08c379a000000000000000000000000000000000000000000000000000000000815260040161175690613e52565b60405180910390fd5b600160009054906101000a900473ffffffffffffffffffffffffffffffffffffffff1673ffffffffffffffffffffffffffffffffffffffff1660008054906101000a900473ffffffffffffffffffffffffffffffffffffffff1673ffffffffffffffffffffffffffffffffffffffff167f8be0079c531659141344cd1fd0a4f28419497f9722a3daafe3b4186f6b6457e060405160405180910390a3600160009054906101000a900473ffffffffffffffffffffffffffffffffffffffff166000806101000a81548173ffffffffffffffffffffffffffffffffffffffff021916908373ffffffffffffffffffffffffffffffffffffffff160217905550565b600061187361186c61207e565b8484612251565b6001905092915050565b61188561207e565b73ffffffffffffffffffffffffffffffffffffffff1660008054906101000a900473ffffffffffffffffffffffffffffffffffffffff1673ffffffffffffffffffffffffffffffffffffffff1614611912576040517f08c379a000000000000000000000000000000000000000000000000000000000815260040161190990613dd2565b60405180910390fd5b6064831080156119225750606482105b801561192e5750606481105b61196d576040517f08c379a000000000000000000000000000000000000000000000000000000000815260040161196490613d92565b60405180910390fd5b826015819055508160168190555080601781905550505050565b6000601a60009054906101000a900473ffffffffffffffffffffffffffffffffffffffff1673ffffffffffffffffffffffffffffffffffffffff1663dc4495a4836040518263ffffffff1660e01b81526004016119e49190613c2d565b60206040518083038186803b1580156119fc57600080fd5b505afa158015611a10573d6000803e3d6000fd5b505050506040513d601f19601f82011682018060405250810190611a34919061389a565b9050919050565b611a4361207e565b73ffffffffffffffffffffffffffffffffffffffff1660008054906101000a900473ffffffffffffffffffffffffffffffffffffffff1673ffffffffffffffffffffffffffffffffffffffff1614611ad0576040517f08c379a0000000000000000000000000000000000000000000000000000000008152600401611ac790613dd2565b60405180910390fd5b60008054906101000a900473ffffffffffffffffffffffffffffffffffffffff16600160006101000a81548173ffffffffffffffffffffffffffffffffffffffff021916908373ffffffffffffffffffffffffffffffffffffffff16021790555060008060006101000a81548173ffffffffffffffffffffffffffffffffffffffff021916908373ffffffffffffffffffffffffffffffffffffffff1602179055508042611b7e9190613fd0565b600281905550600073ffffffffffffffffffffffffffffffffffffffff1660008054906101000a900473ffffffffffffffffffffffffffffffffffffffff1673ffffffffffffffffffffffffffffffffffffffff167f8be0079c531659141344cd1fd0a4f28419497f9722a3daafe3b4186f6b6457e060405160405180910390a350565b6000601160008473ffffffffffffffffffffffffffffffffffffffff1673ffffffffffffffffffffffffffffffffffffffff16815260200190815260200160002060008373ffffffffffffffffffffffffffffffffffffffff1673ffffffffffffffffffffffffffffffffffffffff16815260200190815260200160002054905092915050565b601a60009054906101000a900473ffffffffffffffffffffffffffffffffffffffff1673ffffffffffffffffffffffffffffffffffffffff166328fd3198826040518263ffffffff1660e01b8152600401611ce49190613c2d565b60206040518083038186803b158015611cfc57600080fd5b505afa158015611d10573d6000803e3d6000fd5b505050506040513d601f19601f82011682018060405250810190611d34919061389a565b5050565b611d4061207e565b73ffffffffffffffffffffffffffffffffffffffff1660008054906101000a900473ffffffffffffffffffffffffffffffffffffffff1673ffffffffffffffffffffffffffffffffffffffff1614611dcd576040517f08c379a0000000000000000000000000000000000000000000000000000000008152600401611dc490613dd2565b60405180910390fd5b600073ffffffffffffffffffffffffffffffffffffffff168173ffffffffffffffffffffffffffffffffffffffff161415611e3d576040517f08c379a0000000000000000000000000000000000000000000000000000000008152600401611e3490613d32565b60405180910390fd5b8073ffffffffffffffffffffffffffffffffffffffff1660008054906101000a900473ffffffffffffffffffffffffffffffffffffffff1673ffffffffffffffffffffffffffffffffffffffff167f8be0079c531659141344cd1fd0a4f28419497f9722a3daafe3b4186f6b6457e060405160405180910390a3806000806101000a81548173ffffffffffffffffffffffffffffffffffffffff021916908373ffffffffffffffffffffffffffffffffffffffff16021790555050565b611f0261207e565b73ffffffffffffffffffffffffffffffffffffffff1660008054906101000a900473ffffffffffffffffffffffffffffffffffffffff1673ffffffffffffffffffffffffffffffffffffffff1614611f8f576040517f08c379a0000000000000000000000000000000000000000000000000000000008152600401611f8690613dd2565b60405180910390fd5b80601460008473ffffffffffffffffffffffffffffffffffffffff1673ffffffffffffffffffffffffffffffffffffffff16815260200190815260200160002060006101000a81548160ff0219169083151502179055505050565b600061202c83836040518060400160405280601e81526020017f536166654d6174683a207375627472616374696f6e206f766572666c6f770000815250612bbd565b905092915050565b600061207683836040518060400160405280601a81526020017f536166654d6174683a206469766973696f6e206279207a65726f000000000000815250612c21565b905092915050565b600033905090565b600073ffffffffffffffffffffffffffffffffffffffff168373ffffffffffffffffffffffffffffffffffffffff1614156120f6576040517f08c379a00000000000000000000000000000000000000000000000000000000081526004016120ed90613e32565b60405180910390fd5b600073ffffffffffffffffffffffffffffffffffffffff168273ffffffffffffffffffffffffffffffffffffffff161415612166576040517f08c379a000000000000000000000000000000000000000000000000000000000815260040161215d90613d52565b60405180910390fd5b80601160008573ffffffffffffffffffffffffffffffffffffffff1673ffffffffffffffffffffffffffffffffffffffff16815260200190815260200160002060008473ffffffffffffffffffffffffffffffffffffffff1673ffffffffffffffffffffffffffffffffffffffff168152602001908152602001600020819055508173ffffffffffffffffffffffffffffffffffffffff168373ffffffffffffffffffffffffffffffffffffffff167f8c5be1e5ebec7d5bd14f71427d1e84f3dd0314c0f7b2291e5b200ac8c7c3b925836040516122449190613e92565b60405180910390a3505050565b600073ffffffffffffffffffffffffffffffffffffffff168373ffffffffffffffffffffffffffffffffffffffff1614156122c1576040517f08c379a00000000000000000000000000000000000000000000000000000000081526004016122b890613e12565b60405180910390fd5b600073ffffffffffffffffffffffffffffffffffffffff168273ffffffffffffffffffffffffffffffffffffffff161415612331576040517f08c379a000000000000000000000000000000000000000000000000000000000815260040161232890613cf2565b60405180910390fd5b60008111612374576040517f08c379a000000000000000000000000000000000000000000000000000000000815260040161236b90613df2565b60405180910390fd5b61237e8382612c84565b601c60009054906101000a900460ff16156123a35761239e838383612d21565b612bb8565b6123ab612eec565b156123b9576123b8612f98565b5b612442816040518060400160405280601481526020017f496e73756666696369656e742042616c616e6365000000000000000000000000815250601060008773ffffffffffffffffffffffffffffffffffffffff1673ffffffffffffffffffffffffffffffffffffffff16815260200190815260200160002054612bbd9092919063ffffffff16565b601060008573ffffffffffffffffffffffffffffffffffffffff1673ffffffffffffffffffffffffffffffffffffffff168152602001908152602001600020819055506000612491848461309e565b15612795576000806000806124a5866131fd565b93509350935093506124ff84601060008a73ffffffffffffffffffffffffffffffffffffffff1673ffffffffffffffffffffffffffffffffffffffff168152602001908152602001600020546132db90919063ffffffff16565b601060008973ffffffffffffffffffffffffffffffffffffffff1673ffffffffffffffffffffffffffffffffffffffff168152602001908152602001600020819055506125b68360106000601860009054906101000a900473ffffffffffffffffffffffffffffffffffffffff1673ffffffffffffffffffffffffffffffffffffffff1673ffffffffffffffffffffffffffffffffffffffff168152602001908152602001600020546132db90919063ffffffff16565b60106000601860009054906101000a900473ffffffffffffffffffffffffffffffffffffffff1673ffffffffffffffffffffffffffffffffffffffff1673ffffffffffffffffffffffffffffffffffffffff1681526020019081526020016000208190555061268f8260106000601960009054906101000a900473ffffffffffffffffffffffffffffffffffffffff1673ffffffffffffffffffffffffffffffffffffffff1673ffffffffffffffffffffffffffffffffffffffff168152602001908152602001600020546132db90919063ffffffff16565b60106000601960009054906101000a900473ffffffffffffffffffffffffffffffffffffffff1673ffffffffffffffffffffffffffffffffffffffff1673ffffffffffffffffffffffffffffffffffffffff1681526020019081526020016000208190555061274681601060003073ffffffffffffffffffffffffffffffffffffffff1673ffffffffffffffffffffffffffffffffffffffff168152602001908152602001600020546132db90919063ffffffff16565b601060003073ffffffffffffffffffffffffffffffffffffffff1673ffffffffffffffffffffffffffffffffffffffff168152602001908152602001600020819055508394505050505061282e565b6127e782601060008673ffffffffffffffffffffffffffffffffffffffff1673ffffffffffffffffffffffffffffffffffffffff168152602001908152602001600020546132db90919063ffffffff16565b601060008573ffffffffffffffffffffffffffffffffffffffff1673ffffffffffffffffffffffffffffffffffffffff168152602001908152602001600020819055508190505b601360008573ffffffffffffffffffffffffffffffffffffffff1673ffffffffffffffffffffffffffffffffffffffff16815260200190815260200160002060009054906101000a900460ff1661295157601a60009054906101000a900473ffffffffffffffffffffffffffffffffffffffff1673ffffffffffffffffffffffffffffffffffffffff166314b6ca9685601060008873ffffffffffffffffffffffffffffffffffffffff1673ffffffffffffffffffffffffffffffffffffffff168152602001908152602001600020546040518363ffffffff1660e01b815260040161291b929190613c71565b600060405180830381600087803b15801561293557600080fd5b505af1925050508015612946575060015b61294f57612950565b5b5b601360008473ffffffffffffffffffffffffffffffffffffffff1673ffffffffffffffffffffffffffffffffffffffff16815260200190815260200160002060009054906101000a900460ff16612a7457601a60009054906101000a900473ffffffffffffffffffffffffffffffffffffffff1673ffffffffffffffffffffffffffffffffffffffff166314b6ca9684601060008773ffffffffffffffffffffffffffffffffffffffff1673ffffffffffffffffffffffffffffffffffffffff168152602001908152602001600020546040518363ffffffff1660e01b8152600401612a3e929190613c71565b600060405180830381600087803b158015612a5857600080fd5b505af1925050508015612a69575060015b612a7257612a73565b5b5b600d54601a60009054906101000a900473ffffffffffffffffffffffffffffffffffffffff1673ffffffffffffffffffffffffffffffffffffffff163110612b4957601a60009054906101000a900473ffffffffffffffffffffffffffffffffffffffff1673ffffffffffffffffffffffffffffffffffffffff1663ffb2c479601b546040518263ffffffff1660e01b8152600401612b139190613e92565b600060405180830381600087803b158015612b2d57600080fd5b505af1925050508015612b3e575060015b612b4757612b48565b5b5b612b51613339565b8273ffffffffffffffffffffffffffffffffffffffff168473ffffffffffffffffffffffffffffffffffffffff167fddf252ad1be2c89b69c2b068fc378daa952ba7f163c4a11628f55a4df523b3ef83604051612bae9190613e92565b60405180910390a3505b505050565b6000838311158290612c05576040517f08c379a0000000000000000000000000000000000000000000000000000000008152600401612bfc9190613cd0565b60405180910390fd5b5060008385612c1491906140b1565b9050809150509392505050565b60008083118290612c68576040517f08c379a0000000000000000000000000000000000000000000000000000000008152600401612c5f9190613cd0565b60405180910390fd5b5060008385612c779190614026565b9050809150509392505050565b600b5481111580612cde5750601460008373ffffffffffffffffffffffffffffffffffffffff1673ffffffffffffffffffffffffffffffffffffffff16815260200190815260200160002060009054906101000a900460ff165b612d1d576040517f08c379a0000000000000000000000000000000000000000000000000000000008152600401612d1490613d12565b60405180910390fd5b5050565b612daa816040518060400160405280601481526020017f496e73756666696369656e742042616c616e6365000000000000000000000000815250601060008773ffffffffffffffffffffffffffffffffffffffff1673ffffffffffffffffffffffffffffffffffffffff16815260200190815260200160002054612bbd9092919063ffffffff16565b601060008573ffffffffffffffffffffffffffffffffffffffff1673ffffffffffffffffffffffffffffffffffffffff16815260200190815260200160002081905550612e3f81601060008573ffffffffffffffffffffffffffffffffffffffff1673ffffffffffffffffffffffffffffffffffffffff168152602001908152602001600020546132db90919063ffffffff16565b601060008473ffffffffffffffffffffffffffffffffffffffff1673ffffffffffffffffffffffffffffffffffffffff168152602001908152602001600020819055508173ffffffffffffffffffffffffffffffffffffffff168373ffffffffffffffffffffffffffffffffffffffff167fddf252ad1be2c89b69c2b068fc378daa952ba7f163c4a11628f55a4df523b3ef83604051612edf9190613e92565b60405180910390a3505050565b6000600f60009054906101000a900473ffffffffffffffffffffffffffffffffffffffff1673ffffffffffffffffffffffffffffffffffffffff16612f2f61207e565b73ffffffffffffffffffffffffffffffffffffffff1614158015612f935750600c54601060003073ffffffffffffffffffffffffffffffffffffffff1673ffffffffffffffffffffffffffffffffffffffff16815260200190815260200160002054115b905090565b6001601c60006101000a81548160ff021916908315150217905550612ffb601060003073ffffffffffffffffffffffffffffffffffffffff1673ffffffffffffffffffffffffffffffffffffffff1681526020019081526020016000205461333b565b601a60009054906101000a900473ffffffffffffffffffffffffffffffffffffffff1673ffffffffffffffffffffffffffffffffffffffff1663d0e30db0476040518263ffffffff1660e01b81526004016000604051808303818588803b15801561306557600080fd5b505af193505050508015613077575060015b61308057613081565b5b6000601c60006101000a81548160ff021916908315150217905550565b6000600f60009054906101000a900473ffffffffffffffffffffffffffffffffffffffff1673ffffffffffffffffffffffffffffffffffffffff168373ffffffffffffffffffffffffffffffffffffffff161480156131475750601260008473ffffffffffffffffffffffffffffffffffffffff1673ffffffffffffffffffffffffffffffffffffffff16815260200190815260200160002060009054906101000a900460ff16155b806131f55750600f60009054906101000a900473ffffffffffffffffffffffffffffffffffffffff1673ffffffffffffffffffffffffffffffffffffffff168273ffffffffffffffffffffffffffffffffffffffff161480156131f45750601260008373ffffffffffffffffffffffffffffffffffffffff1673ffffffffffffffffffffffffffffffffffffffff16815260200190815260200160002060009054906101000a900460ff16155b5b905092915050565b600080600080600061322d606461321f6015548961363890919063ffffffff16565b61203490919063ffffffff16565b90506000613259606461324b6016548a61363890919063ffffffff16565b61203490919063ffffffff16565b9050600061328560646132776017548b61363890919063ffffffff16565b61203490919063ffffffff16565b905060006132c2826132b4856132a66015548e611fea90919063ffffffff16565b611fea90919063ffffffff16565b611fea90919063ffffffff16565b9050808484849750975097509750505050509193509193565b60008082846132ea9190613fd0565b90508381101561332f576040517f08c379a000000000000000000000000000000000000000000000000000000000815260040161332690613d72565b60405180910390fd5b8091505092915050565b565b6000600267ffffffffffffffff81111561337e577f4e487b7100000000000000000000000000000000000000000000000000000000600052604160045260246000fd5b6040519080825280602002602001820160405280156133ac5781602001602082028036833780820191505090505b50905030816000815181106133ea577f4e487b7100000000000000000000000000000000000000000000000000000000600052603260045260246000fd5b602002602001019073ffffffffffffffffffffffffffffffffffffffff16908173ffffffffffffffffffffffffffffffffffffffff1681525050600e60009054906101000a900473ffffffffffffffffffffffffffffffffffffffff1673ffffffffffffffffffffffffffffffffffffffff1663ad5c46486040518163ffffffff1660e01b815260040160206040518083038186803b15801561348c57600080fd5b505afa1580156134a0573d6000803e3d6000fd5b505050506040513d601f19601f820116820180604052508101906134c49190613745565b816001815181106134fe577f4e487b7100000000000000000000000000000000000000000000000000000000600052603260045260246000fd5b602002602001019073ffffffffffffffffffffffffffffffffffffffff16908173ffffffffffffffffffffffffffffffffffffffff168152505061356530600e60009054906101000a900473ffffffffffffffffffffffffffffffffffffffff1684612086565b600e60009054906101000a900473ffffffffffffffffffffffffffffffffffffffff1673ffffffffffffffffffffffffffffffffffffffff1663791ac9478360008430426040518663ffffffff1660e01b81526004016135c9959493929190613edd565b600060405180830381600087803b1580156135e357600080fd5b505af11580156135f7573d6000803e3d6000fd5b505050507f32cde87eb454f3a0b875ab23547023107cfad454363ec88ba5695e2c24aa52a7828260405161362c929190613ead565b60405180910390a15050565b60008083141561364b57600090506136ad565b600082846136599190614057565b90508284826136689190614026565b146136a8576040517f08c379a000000000000000000000000000000000000000000000000000000000815260040161369f90613db2565b60405180910390fd5b809150505b92915050565b6000813590506136c2816145b8565b92915050565b6000815190506136d7816145b8565b92915050565b6000813590506136ec816145cf565b92915050565b600081359050613701816145e6565b92915050565b600081519050613716816145e6565b92915050565b60006020828403121561372e57600080fd5b600061373c848285016136b3565b91505092915050565b60006020828403121561375757600080fd5b6000613765848285016136c8565b91505092915050565b6000806040838503121561378157600080fd5b600061378f858286016136b3565b92505060206137a0858286016136b3565b9150509250929050565b6000806000606084860312156137bf57600080fd5b60006137cd868287016136b3565b93505060206137de868287016136b3565b92505060406137ef868287016136f2565b9150509250925092565b6000806040838503121561380c57600080fd5b600061381a858286016136b3565b925050602061382b858286016136dd565b9150509250929050565b6000806040838503121561384857600080fd5b6000613856858286016136b3565b9250506020613867858286016136f2565b9150509250929050565b60006020828403121561388357600080fd5b6000613891848285016136f2565b91505092915050565b6000602082840312156138ac57600080fd5b60006138ba84828501613707565b91505092915050565b600080604083850312156138d657600080fd5b60006138e4858286016136f2565b92505060206138f5858286016136f2565b9150509250929050565b60008060006060848603121561391457600080fd5b6000613922868287016136f2565b9350506020613933868287016136f2565b9250506040613944868287016136f2565b9150509250925092565b600061395a8383613966565b60208301905092915050565b61396f816140e5565b82525050565b61397e816140e5565b82525050565b600061398f82613f8b565b6139998185613fae565b93506139a483613f7b565b8060005b838110156139d55781516139bc888261394e565b97506139c783613fa1565b9250506001810190506139a8565b5085935050505092915050565b6139eb816140f7565b82525050565b6139fa8161413a565b82525050565b613a098161415e565b82525050565b6000613a1a82613f96565b613a248185613fbf565b9350613a34818560208601614170565b613a3d81614262565b840191505092915050565b6000613a55602383613fbf565b9150613a6082614273565b604082019050919050565b6000613a78601183613fbf565b9150613a83826142c2565b602082019050919050565b6000613a9b602683613fbf565b9150613aa6826142eb565b604082019050919050565b6000613abe602283613fbf565b9150613ac98261433a565b604082019050919050565b6000613ae1601b83613fbf565b9150613aec82614389565b602082019050919050565b6000613b04601283613fbf565b9150613b0f826143b2565b602082019050919050565b6000613b27602183613fbf565b9150613b32826143db565b604082019050919050565b6000613b4a602083613fbf565b9150613b558261442a565b602082019050919050565b6000613b6d602983613fbf565b9150613b7882614453565b604082019050919050565b6000613b90602583613fbf565b9150613b9b826144a2565b604082019050919050565b6000613bb3602483613fbf565b9150613bbe826144f1565b604082019050919050565b6000613bd6601f83613fbf565b9150613be182614540565b602082019050919050565b6000613bf9602383613fbf565b9150613c0482614569565b604082019050919050565b613c1881614123565b82525050565b613c278161412d565b82525050565b6000602082019050613c426000830184613975565b92915050565b6000604082019050613c5d6000830185613975565b613c6a6020830184613975565b9392505050565b6000604082019050613c866000830185613975565b613c936020830184613c0f565b9392505050565b6000602082019050613caf60008301846139e2565b92915050565b6000602082019050613cca60008301846139f1565b92915050565b60006020820190508181036000830152613cea8184613a0f565b905092915050565b60006020820190508181036000830152613d0b81613a48565b9050919050565b60006020820190508181036000830152613d2b81613a6b565b9050919050565b60006020820190508181036000830152613d4b81613a8e565b9050919050565b60006020820190508181036000830152613d6b81613ab1565b9050919050565b60006020820190508181036000830152613d8b81613ad4565b9050919050565b60006020820190508181036000830152613dab81613af7565b9050919050565b60006020820190508181036000830152613dcb81613b1a565b9050919050565b60006020820190508181036000830152613deb81613b3d565b9050919050565b60006020820190508181036000830152613e0b81613b60565b9050919050565b60006020820190508181036000830152613e2b81613b83565b9050919050565b60006020820190508181036000830152613e4b81613ba6565b9050919050565b60006020820190508181036000830152613e6b81613bc9565b9050919050565b60006020820190508181036000830152613e8b81613bec565b9050919050565b6000602082019050613ea76000830184613c0f565b92915050565b6000604082019050613ec26000830185613c0f565b8181036020830152613ed48184613984565b90509392505050565b600060a082019050613ef26000830188613c0f565b613eff6020830187613a00565b8181036040830152613f118186613984565b9050613f206060830185613975565b613f2d6080830184613c0f565b9695505050505050565b6000604082019050613f4c6000830185613c0f565b613f596020830184613c0f565b9392505050565b6000602082019050613f756000830184613c1e565b92915050565b6000819050602082019050919050565b600081519050919050565b600081519050919050565b6000602082019050919050565b600082825260208201905092915050565b600082825260208201905092915050565b6000613fdb82614123565b9150613fe683614123565b9250827fffffffffffffffffffffffffffffffffffffffffffffffffffffffffffffffff0382111561401b5761401a6141d5565b5b828201905092915050565b600061403182614123565b915061403c83614123565b92508261404c5761404b614204565b5b828204905092915050565b600061406282614123565b915061406d83614123565b9250817fffffffffffffffffffffffffffffffffffffffffffffffffffffffffffffffff04831182151516156140a6576140a56141d5565b5b828202905092915050565b60006140bc82614123565b91506140c783614123565b9250828210156140da576140d96141d5565b5b828203905092915050565b60006140f082614103565b9050919050565b60008115159050919050565b600073ffffffffffffffffffffffffffffffffffffffff82169050919050565b6000819050919050565b600060ff82169050919050565b60006141458261414c565b9050919050565b600061415782614103565b9050919050565b600061416982614123565b9050919050565b60005b8381101561418e578082015181840152602081019050614173565b8381111561419d576000848401525b50505050565b600060028204905060018216806141bb57607f821691505b602082108114156141cf576141ce614233565b5b50919050565b7f4e487b7100000000000000000000000000000000000000000000000000000000600052601160045260246000fd5b7f4e487b7100000000000000000000000000000000000000000000000000000000600052601260045260246000fd5b7f4e487b7100000000000000000000000000000000000000000000000000000000600052602260045260246000fd5b6000601f19601f8301169050919050565b7f45524332303a207472616e7366657220746f20746865207a65726f206164647260008201527f6573730000000000000000000000000000000000000000000000000000000000602082015250565b7f5458204c696d6974204578636565646564000000000000000000000000000000600082015250565b7f4f776e61626c653a206e6577206f776e657220697320746865207a65726f206160008201527f6464726573730000000000000000000000000000000000000000000000000000602082015250565b7f45524332303a20617070726f766520746f20746865207a65726f20616464726560008201527f7373000000000000000000000000000000000000000000000000000000000000602082015250565b7f536166654d6174683a206164646974696f6e206f766572666c6f770000000000600082015250565b7f496e76616c69642070657263656e746167650000000000000000000000000000600082015250565b7f536166654d6174683a206d756c7469706c69636174696f6e206f766572666c6f60008201527f7700000000000000000000000000000000000000000000000000000000000000602082015250565b7f4f776e61626c653a2063616c6c6572206973206e6f7420746865206f776e6572600082015250565b7f5472616e7366657220616d6f756e74206d75737420626520677265617465722060008201527f7468616e207a65726f0000000000000000000000000000000000000000000000602082015250565b7f45524332303a207472616e736665722066726f6d20746865207a65726f20616460008201527f6472657373000000000000000000000000000000000000000000000000000000602082015250565b7f45524332303a20617070726f76652066726f6d20746865207a65726f2061646460008201527f7265737300000000000000000000000000000000000000000000000000000000602082015250565b7f436f6e7472616374206973206c6f636b656420756e74696c2037206461797300600082015250565b7f596f7520646f6e27742068617665207065726d697373696f6e20746f20756e6c60008201527f6f636b0000000000000000000000000000000000000000000000000000000000602082015250565b6145c1816140e5565b81146145cc57600080fd5b50565b6145d8816140f7565b81146145e357600080fd5b50565b6145ef81614123565b81146145fa57600080fd5b5056fe45524332303a207472616e7366657220616d6f756e74206578636565647320616c6c6f77616e6365a2646970667358221220986ad4d05a1a3c247b51c1cb439fbe72660b93443784d51b8bebbaf741dbb4ee64736f6c63430008040033608060405273bb4cdb9cbd36b01bd1cbaebf2de08d9173bc095c600260006101000a81548173ffffffffffffffffffffffffffffffffffffffff021916908373ffffffffffffffffffffffffffffffffffffffff1602179055506ec097ce7bc90715b34b9f1000000000600c55610e10600d55662386f26fc10000600e553480156200008a57600080fd5b5060405162001cae38038062001cae8339818101604052810190620000b09190620001e3565b600073ffffffffffffffffffffffffffffffffffffffff168273ffffffffffffffffffffffffffffffffffffffff16141562000101577310ed43c718714eb63d5aa57b78b54704e256024e62000103565b815b600360006101000a81548173ffffffffffffffffffffffffffffffffffffffff021916908373ffffffffffffffffffffffffffffffffffffffff160217905550336000806101000a81548173ffffffffffffffffffffffffffffffffffffffff021916908373ffffffffffffffffffffffffffffffffffffffff16021790555080600160006101000a81548173ffffffffffffffffffffffffffffffffffffffff021916908373ffffffffffffffffffffffffffffffffffffffff160217905550505062000272565b600081519050620001dd8162000258565b92915050565b60008060408385031215620001f757600080fd5b60006200020785828601620001cc565b92505060206200021a85828601620001cc565b9150509250929050565b6000620002318262000238565b9050919050565b600073ffffffffffffffffffffffffffffffffffffffff82169050919050565b620002638162000224565b81146200026f57600080fd5b50565b611a2c80620002826000396000f3fe6080604052600436106100e85760003560e01c8063ce7c2ac21161008a578063efca2eed11610059578063efca2eed146102d9578063f0fc6bca14610304578063ffb2c4791461031b578063ffd49c8414610344576100e8565b8063ce7c2ac214610228578063d0e30db014610267578063dc4495a414610271578063e2d2e219146102ae576100e8565b80632d48e896116100c65780632d48e8961461017e5780633a98ef39146101a75780634fab0ae8146101d2578063997664d7146101fd576100e8565b806311ce023d146100ed57806314b6ca961461011857806328fd319814610141575b600080fd5b3480156100f957600080fd5b5061010261036f565b60405161010f91906116a6565b60405180910390f35b34801561012457600080fd5b5061013f600480360381019061013a9190611515565b610375565b005b34801561014d57600080fd5b50610168600480360381019061016391906114ec565b61068c565b60405161017591906116a6565b60405180910390f35b34801561018a57600080fd5b506101a560048036038101906101a0919061157a565b6107a6565b005b3480156101b357600080fd5b506101bc610868565b6040516101c991906116a6565b60405180910390f35b3480156101de57600080fd5b506101e761086e565b6040516101f491906116a6565b60405180910390f35b34801561020957600080fd5b50610212610874565b60405161021f91906116a6565b60405180910390f35b34801561023457600080fd5b5061024f600480360381019061024a91906114ec565b61087a565b60405161025e939291906116c1565b60405180910390f35b61026f6108a4565b005b34801561027d57600080fd5b50610298600480360381019061029391906114ec565b6109b4565b6040516102a591906116a6565b60405180910390f35b3480156102ba57600080fd5b506102c3610a00565b6040516102d091906116a6565b60405180910390f35b3480156102e557600080fd5b506102ee610a06565b6040516102fb91906116a6565b60405180910390f35b34801561031057600080fd5b50610319610a0c565b005b34801561032757600080fd5b50610342600480360381019061033d9190611551565b610a17565b005b34801561035057600080fd5b50610359610c4f565b60405161036691906116a6565b60405180910390f35b600c5481565b60008054906101000a900473ffffffffffffffffffffffffffffffffffffffff1673ffffffffffffffffffffffffffffffffffffffff163373ffffffffffffffffffffffffffffffffffffffff16148061041c5750600160009054906101000a900473ffffffffffffffffffffffffffffffffffffffff1673ffffffffffffffffffffffffffffffffffffffff163373ffffffffffffffffffffffffffffffffffffffff16145b61042557600080fd5b6000600760008473ffffffffffffffffffffffffffffffffffffffff1673ffffffffffffffffffffffffffffffffffffffff16815260200190815260200160002060000154111561047a5761047982610c55565b5b6000811180156104cc57506000600760008473ffffffffffffffffffffffffffffffffffffffff1673ffffffffffffffffffffffffffffffffffffffff16815260200190815260200160002060000154145b156104df576104da82610e56565b610541565b60008114801561053157506000600760008473ffffffffffffffffffffffffffffffffffffffff1673ffffffffffffffffffffffffffffffffffffffff16815260200190815260200160002060000154115b156105405761053f82610f05565b5b5b6105aa8161059c600760008673ffffffffffffffffffffffffffffffffffffffff1673ffffffffffffffffffffffffffffffffffffffff168152602001908152602001600020600001546008546111a490919063ffffffff16565b6111ee90919063ffffffff16565b60088190555080600760008473ffffffffffffffffffffffffffffffffffffffff1673ffffffffffffffffffffffffffffffffffffffff16815260200190815260200160002060000181905550610642600760008473ffffffffffffffffffffffffffffffffffffffff1673ffffffffffffffffffffffffffffffffffffffff1681526020019081526020016000206000015461124c565b600760008473ffffffffffffffffffffffffffffffffffffffff1673ffffffffffffffffffffffffffffffffffffffff168152602001908152602001600020600101819055505050565b600080600760008473ffffffffffffffffffffffffffffffffffffffff1673ffffffffffffffffffffffffffffffffffffffff1681526020019081526020016000206000015414156106e157600090506107a1565b600061072e600760008573ffffffffffffffffffffffffffffffffffffffff1673ffffffffffffffffffffffffffffffffffffffff1681526020019081526020016000206000015461124c565b90506000600760008573ffffffffffffffffffffffffffffffffffffffff1673ffffffffffffffffffffffffffffffffffffffff168152602001908152602001600020600101549050808211610789576000925050506107a1565b61079c81836111a490919063ffffffff16565b925050505b919050565b60008054906101000a900473ffffffffffffffffffffffffffffffffffffffff1673ffffffffffffffffffffffffffffffffffffffff163373ffffffffffffffffffffffffffffffffffffffff16148061084d5750600160009054906101000a900473ffffffffffffffffffffffffffffffffffffffff1673ffffffffffffffffffffffffffffffffffffffff163373ffffffffffffffffffffffffffffffffffffffff16145b61085657600080fd5b81600d8190555080600e819055505050565b60085481565b600e5481565b60095481565b60076020528060005260406000206000915090508060000154908060010154908060020154905083565b60008054906101000a900473ffffffffffffffffffffffffffffffffffffffff1673ffffffffffffffffffffffffffffffffffffffff163373ffffffffffffffffffffffffffffffffffffffff16148061094b5750600160009054906101000a900473ffffffffffffffffffffffffffffffffffffffff1673ffffffffffffffffffffffffffffffffffffffff163373ffffffffffffffffffffffffffffffffffffffff16145b61095457600080fd5b610969346009546111ee90919063ffffffff16565b6009819055506109ac61099b60085461098d34600c5461127e90919063ffffffff16565b6112f990919063ffffffff16565b600b546111ee90919063ffffffff16565b600b81905550565b6000600760008373ffffffffffffffffffffffffffffffffffffffff1673ffffffffffffffffffffffffffffffffffffffff168152602001908152602001600020600001549050919050565b600b5481565b600a5481565b610a1533610c55565b565b60008054906101000a900473ffffffffffffffffffffffffffffffffffffffff1673ffffffffffffffffffffffffffffffffffffffff163373ffffffffffffffffffffffffffffffffffffffff161480610abe5750600160009054906101000a900473ffffffffffffffffffffffffffffffffffffffff1673ffffffffffffffffffffffffffffffffffffffff163373ffffffffffffffffffffffffffffffffffffffff16145b610ac757600080fd5b600060048054905090506000811415610ae05750610c4c565b6000805a905060005b8483108015610af757508381105b15610c475783600f5410610b0e576000600f819055505b610b7d6004600f5481548110610b4d577f4e487b7100000000000000000000000000000000000000000000000000000000600052603260045260246000fd5b9060005260206000200160009054906101000a900473ffffffffffffffffffffffffffffffffffffffff16611343565b15610bf257610bf16004600f5481548110610bc1577f4e487b7100000000000000000000000000000000000000000000000000000000600052603260045260246000fd5b9060005260206000200160009054906101000a900473ffffffffffffffffffffffffffffffffffffffff16610c55565b5b610c17610c085a846111a490919063ffffffff16565b846111ee90919063ffffffff16565b92505a9150600f6000815480929190610c2f90611898565b91905055508080610c3f90611898565b915050610ae9565b505050505b50565b600d5481565b6000600760008373ffffffffffffffffffffffffffffffffffffffff1673ffffffffffffffffffffffffffffffffffffffff168152602001908152602001600020600001541415610ca557610e53565b6000610cb08261068c565b90506000811115610e5157610cd081600a546111ee90919063ffffffff16565b600a81905550610ce082826113b0565b42600660008473ffffffffffffffffffffffffffffffffffffffff1673ffffffffffffffffffffffffffffffffffffffff16815260200190815260200160002081905550610d7981600760008573ffffffffffffffffffffffffffffffffffffffff1673ffffffffffffffffffffffffffffffffffffffff168152602001908152602001600020600201546111ee90919063ffffffff16565b600760008473ffffffffffffffffffffffffffffffffffffffff1673ffffffffffffffffffffffffffffffffffffffff16815260200190815260200160002060020181905550610e0a600760008473ffffffffffffffffffffffffffffffffffffffff1673ffffffffffffffffffffffffffffffffffffffff1681526020019081526020016000206000015461124c565b600760008473ffffffffffffffffffffffffffffffffffffffff1673ffffffffffffffffffffffffffffffffffffffff168152602001908152602001600020600101819055505b505b50565b600480549050600560008373ffffffffffffffffffffffffffffffffffffffff1673ffffffffffffffffffffffffffffffffffffffff168152602001908152602001600020819055506004819080600181540180825580915050600190039060005260206000200160009091909190916101000a81548173ffffffffffffffffffffffffffffffffffffffff021916908373ffffffffffffffffffffffffffffffffffffffff16021790555050565b60046001600480549050610f1991906117f5565b81548110610f50577f4e487b7100000000000000000000000000000000000000000000000000000000600052603260045260246000fd5b9060005260206000200160009054906101000a900473ffffffffffffffffffffffffffffffffffffffff166004600560008473ffffffffffffffffffffffffffffffffffffffff1673ffffffffffffffffffffffffffffffffffffffff1681526020019081526020016000205481548110610ff4577f4e487b7100000000000000000000000000000000000000000000000000000000600052603260045260246000fd5b9060005260206000200160006101000a81548173ffffffffffffffffffffffffffffffffffffffff021916908373ffffffffffffffffffffffffffffffffffffffff160217905550600560008273ffffffffffffffffffffffffffffffffffffffff1673ffffffffffffffffffffffffffffffffffffffff16815260200190815260200160002054600560006004600160048054905061109491906117f5565b815481106110cb577f4e487b7100000000000000000000000000000000000000000000000000000000600052603260045260246000fd5b9060005260206000200160009054906101000a900473ffffffffffffffffffffffffffffffffffffffff1673ffffffffffffffffffffffffffffffffffffffff1673ffffffffffffffffffffffffffffffffffffffff16815260200190815260200160002081905550600480548061116c577f4e487b7100000000000000000000000000000000000000000000000000000000600052603160045260246000fd5b6001900381819060005260206000200160006101000a81549073ffffffffffffffffffffffffffffffffffffffff0219169055905550565b60006111e683836040518060400160405280601e81526020017f536166654d6174683a207375627472616374696f6e206f766572666c6f7700008152506113fb565b905092915050565b60008082846111fd9190611714565b905083811015611242576040517f08c379a000000000000000000000000000000000000000000000000000000000815260040161123990611666565b60405180910390fd5b8091505092915050565b6000611277600c54611269600b548561127e90919063ffffffff16565b6112f990919063ffffffff16565b9050919050565b60008083141561129157600090506112f3565b6000828461129f919061179b565b90508284826112ae919061176a565b146112ee576040517f08c379a00000000000000000000000000000000000000000000000000000000081526004016112e590611686565b60405180910390fd5b809150505b92915050565b600061133b83836040518060400160405280601a81526020017f536166654d6174683a206469766973696f6e206279207a65726f00000000000081525061145f565b905092915050565b600042600d54600660008573ffffffffffffffffffffffffffffffffffffffff1673ffffffffffffffffffffffffffffffffffffffff168152602001908152602001600020546113939190611714565b1080156113a95750600e546113a78361068c565b115b9050919050565b8173ffffffffffffffffffffffffffffffffffffffff166108fc829081150290604051600060405180830381858888f193505050501580156113f6573d6000803e3d6000fd5b505050565b6000838311158290611443576040517f08c379a000000000000000000000000000000000000000000000000000000000815260040161143a9190611644565b60405180910390fd5b506000838561145291906117f5565b9050809150509392505050565b600080831182906114a6576040517f08c379a000000000000000000000000000000000000000000000000000000000815260040161149d9190611644565b60405180910390fd5b50600083856114b5919061176a565b9050809150509392505050565b6000813590506114d1816119c8565b92915050565b6000813590506114e6816119df565b92915050565b6000602082840312156114fe57600080fd5b600061150c848285016114c2565b91505092915050565b6000806040838503121561152857600080fd5b6000611536858286016114c2565b9250506020611547858286016114d7565b9150509250929050565b60006020828403121561156357600080fd5b6000611571848285016114d7565b91505092915050565b6000806040838503121561158d57600080fd5b600061159b858286016114d7565b92505060206115ac858286016114d7565b9150509250929050565b60006115c1826116f8565b6115cb8185611703565b93506115db818560208601611865565b6115e48161193f565b840191505092915050565b60006115fc601b83611703565b915061160782611950565b602082019050919050565b600061161f602183611703565b915061162a82611979565b604082019050919050565b61163e8161185b565b82525050565b6000602082019050818103600083015261165e81846115b6565b905092915050565b6000602082019050818103600083015261167f816115ef565b9050919050565b6000602082019050818103600083015261169f81611612565b9050919050565b60006020820190506116bb6000830184611635565b92915050565b60006060820190506116d66000830186611635565b6116e36020830185611635565b6116f06040830184611635565b949350505050565b600081519050919050565b600082825260208201905092915050565b600061171f8261185b565b915061172a8361185b565b9250827fffffffffffffffffffffffffffffffffffffffffffffffffffffffffffffffff0382111561175f5761175e6118e1565b5b828201905092915050565b60006117758261185b565b91506117808361185b565b9250826117905761178f611910565b5b828204905092915050565b60006117a68261185b565b91506117b18361185b565b9250817fffffffffffffffffffffffffffffffffffffffffffffffffffffffffffffffff04831182151516156117ea576117e96118e1565b5b828202905092915050565b60006118008261185b565b915061180b8361185b565b92508282101561181e5761181d6118e1565b5b828203905092915050565b60006118348261183b565b9050919050565b600073ffffffffffffffffffffffffffffffffffffffff82169050919050565b6000819050919050565b60005b83811015611883578082015181840152602081019050611868565b83811115611892576000848401525b50505050565b60006118a38261185b565b91507fffffffffffffffffffffffffffffffffffffffffffffffffffffffffffffffff8214156118d6576118d56118e1565b5b600182019050919050565b7f4e487b7100000000000000000000000000000000000000000000000000000000600052601160045260246000fd5b7f4e487b7100000000000000000000000000000000000000000000000000000000600052601260045260246000fd5b6000601f19601f8301169050919050565b7f536166654d6174683a206164646974696f6e206f766572666c6f770000000000600082015250565b7f536166654d6174683a206d756c7469706c69636174696f6e206f766572666c6f60008201527f7700000000000000000000000000000000000000000000000000000000000000602082015250565b6119d181611829565b81146119dc57600080fd5b50565b6119e88161185b565b81146119f357600080fd5b5056fea2646970667358221220f92776ee50cff17973e9a19336eaa5b7d6236ef264a7994d64951d31f42476b864736f6c63430008040033",
  "immutableReferences": {},
  "source": "// SPDX-License-Identifier: UNLICENSED\n\npragma solidity ^0.8.4;\n\nabstract contract Context {\n    function _msgSender() internal view virtual returns (address payable) {\n        return payable(msg.sender);\n    }\n\n    function _msgData() internal view virtual returns (bytes memory) {\n        this; // silence state mutability warning without generating bytecode - see https://github.com/ethereum/solidity/issues/2691\n        return msg.data;\n    }\n}\n\n\ninterface IBEP20 {\n\n    function totalSupply() external view returns (uint256);\n    function balanceOf(address account) external view returns (uint256);\n    function transfer(address recipient, uint256 amount) external returns (bool);\n    function allowance(address owner, address spender) external view returns (uint256);\n    function approve(address spender, uint256 amount) external returns (bool);\n    function transferFrom(address sender, address recipient, uint256 amount) external returns (bool);\n    event Transfer(address indexed from, address indexed to, uint256 value);\n    event Approval(address indexed owner, address indexed spender, uint256 value);\n      \n}\n\nlibrary SafeMath {\n\n    function add(uint256 a, uint256 b) internal pure returns (uint256) {\n        uint256 c = a + b;\n        require(c >= a, \"SafeMath: addition overflow\");\n\n        return c;\n    }\n\n    function sub(uint256 a, uint256 b) internal pure returns (uint256) {\n        return sub(a, b, \"SafeMath: subtraction overflow\");\n    }\n\n    function sub(uint256 a, uint256 b, string memory errorMessage) internal pure returns (uint256) {\n        require(b <= a, errorMessage);\n        uint256 c = a - b;\n\n        return c;\n    }\n\n    function mul(uint256 a, uint256 b) internal pure returns (uint256) {\n        if (a == 0) {\n            return 0;\n        }\n\n        uint256 c = a * b;\n        require(c / a == b, \"SafeMath: multiplication overflow\");\n\n        return c;\n    }\n\n\n    function div(uint256 a, uint256 b) internal pure returns (uint256) {\n        return div(a, b, \"SafeMath: division by zero\");\n    }\n\n    function div(uint256 a, uint256 b, string memory errorMessage) internal pure returns (uint256) {\n        require(b > 0, errorMessage);\n        uint256 c = a / b;\n        // assert(a == b * c + a % b); // There is no case in which this doesn't hold\n\n        return c;\n    }\n\n    function mod(uint256 a, uint256 b) internal pure returns (uint256) {\n        return mod(a, b, \"SafeMath: modulo by zero\");\n    }\n\n    function mod(uint256 a, uint256 b, string memory errorMessage) internal pure returns (uint256) {\n        require(b != 0, errorMessage);\n        return a % b;\n    }\n}\n\ncontract Ownable is Context {\n    address private _owner;\n    address private _previousOwner;\n    uint256 private _lockTime;\n\n    event OwnershipTransferred(address indexed previousOwner, address indexed newOwner);\n\n    constructor () {\n        address msgSender = _msgSender();\n        _owner = msgSender;\n        emit OwnershipTransferred(address(0), msgSender);\n    }\n\n    function owner() public view returns (address) {\n        return _owner;\n    }   \n    \n    modifier onlyOwner() {\n        require(_owner == _msgSender(), \"Ownable: caller is not the owner\");\n        _;\n    }\n    \n    function renounceOwnership() public virtual onlyOwner {\n        emit OwnershipTransferred(_owner, address(0));\n        _owner = address(0);\n    }\n\n    function transferOwnership(address newOwner) public virtual onlyOwner {\n        require(newOwner != address(0), \"Ownable: new owner is the zero address\");\n        emit OwnershipTransferred(_owner, newOwner);\n        _owner = newOwner;\n        \n    }\n\n    function getUnlockTime() public view returns (uint256) {\n        return _lockTime;\n    }\n    \n    function getTime() public view returns (uint256) {\n        return block.timestamp;\n    }\n\n    function lock(uint256 time) public virtual onlyOwner {\n        _previousOwner = _owner;\n        _owner = address(0);\n        _lockTime = block.timestamp + time;\n        emit OwnershipTransferred(_owner, address(0));\n    }\n    \n    function unlock() public virtual {\n        require(_previousOwner == msg.sender, \"You don't have permission to unlock\");\n        require(block.timestamp > _lockTime , \"Contract is locked until 7 days\");\n        emit OwnershipTransferred(_owner, _previousOwner);\n        _owner = _previousOwner;\n    }\n}\n\ninterface IUniswapV2Factory {\n    event PairCreated(address indexed token0, address indexed token1, address pair, uint);\n\n    function feeTo() external view returns (address);\n    function feeToSetter() external view returns (address);\n\n    function getPair(address tokenA, address tokenB) external view returns (address pair);\n    function allPairs(uint) external view returns (address pair);\n    function allPairsLength() external view returns (uint);\n\n    function createPair(address tokenA, address tokenB) external returns (address pair);\n\n    function setFeeTo(address) external;\n    function setFeeToSetter(address) external;\n}\n\ninterface IUniswapV2Pair {\n    event Approval(address indexed owner, address indexed spender, uint value);\n    event Transfer(address indexed from, address indexed to, uint value);\n\n    function name() external pure returns (string memory);\n    function symbol() external pure returns (string memory);\n    function decimals() external pure returns (uint8);\n    function totalSupply() external view returns (uint);\n    function balanceOf(address owner) external view returns (uint);\n    function allowance(address owner, address spender) external view returns (uint);\n\n    function approve(address spender, uint value) external returns (bool);\n    function transfer(address to, uint value) external returns (bool);\n    function transferFrom(address from, address to, uint value) external returns (bool);\n\n    function DOMAIN_SEPARATOR() external view returns (bytes32);\n    function PERMIT_TYPEHASH() external pure returns (bytes32);\n    function nonces(address owner) external view returns (uint);\n\n    function permit(address owner, address spender, uint value, uint deadline, uint8 v, bytes32 r, bytes32 s) external;\n    \n    event Burn(address indexed sender, uint amount0, uint amount1, address indexed to);\n    event Swap(\n        address indexed sender,\n        uint amount0In,\n        uint amount1In,\n        uint amount0Out,\n        uint amount1Out,\n        address indexed to\n    );\n    event Sync(uint112 reserve0, uint112 reserve1);\n\n    function MINIMUM_LIQUIDITY() external pure returns (uint);\n    function factory() external view returns (address);\n    function token0() external view returns (address);\n    function token1() external view returns (address);\n    function getReserves() external view returns (uint112 reserve0, uint112 reserve1, uint32 blockTimestampLast);\n    function price0CumulativeLast() external view returns (uint);\n    function price1CumulativeLast() external view returns (uint);\n    function kLast() external view returns (uint);\n\n    function burn(address to) external returns (uint amount0, uint amount1);\n    function swap(uint amount0Out, uint amount1Out, address to, bytes calldata data) external;\n    function skim(address to) external;\n    function sync() external;\n\n    function initialize(address, address) external;\n}\n\ninterface IUniswapV2Router {\n    function factory() external pure returns (address);\n    function WETH() external pure returns (address);\n\n    function addLiquidity(\n        address tokenA,\n        address tokenB,\n        uint amountADesired,\n        uint amountBDesired,\n        uint amountAMin,\n        uint amountBMin,\n        address to,\n        uint deadline\n    ) external returns (uint amountA, uint amountB, uint liquidity);\n    function addLiquidityETH(\n        address token,\n        uint amountTokenDesired,\n        uint amountTokenMin,\n        uint amountETHMin,\n        address to,\n        uint deadline\n    ) external payable returns (uint amountToken, uint amountETH, uint liquidity);\n    function removeLiquidity(\n        address tokenA,\n        address tokenB,\n        uint liquidity,\n        uint amountAMin,\n        uint amountBMin,\n        address to,\n        uint deadline\n    ) external returns (uint amountA, uint amountB);\n    function removeLiquidityETH(\n        address token,\n        uint liquidity,\n        uint amountTokenMin,\n        uint amountETHMin,\n        address to,\n        uint deadline\n    ) external returns (uint amountToken, uint amountETH);\n    function removeLiquidityWithPermit(\n        address tokenA,\n        address tokenB,\n        uint liquidity,\n        uint amountAMin,\n        uint amountBMin,\n        address to,\n        uint deadline,\n        bool approveMax, uint8 v, bytes32 r, bytes32 s\n    ) external returns (uint amountA, uint amountB);\n    function removeLiquidityETHWithPermit(\n        address token,\n        uint liquidity,\n        uint amountTokenMin,\n        uint amountETHMin,\n        address to,\n        uint deadline,\n        bool approveMax, uint8 v, bytes32 r, bytes32 s\n    ) external returns (uint amountToken, uint amountETH);\n    function swapExactTokensForTokens(\n        uint amountIn,\n        uint amountOutMin,\n        address[] calldata path,\n        address to,\n        uint deadline\n    ) external returns (uint[] memory amounts);\n    function swapTokensForExactTokens(\n        uint amountOut,\n        uint amountInMax,\n        address[] calldata path,\n        address to,\n        uint deadline\n    ) external returns (uint[] memory amounts);\n    function swapExactETHForTokens(uint amountOutMin, address[] calldata path, address to, uint deadline)\n        external\n        payable\n        returns (uint[] memory amounts);\n    function swapTokensForExactETH(uint amountOut, uint amountInMax, address[] calldata path, address to, uint deadline)\n        external\n        returns (uint[] memory amounts);\n    function swapExactTokensForETH(uint amountIn, uint amountOutMin, address[] calldata path, address to, uint deadline)\n        external\n        returns (uint[] memory amounts);\n    function swapETHForExactTokens(uint amountOut, address[] calldata path, address to, uint deadline)\n        external\n        payable\n        returns (uint[] memory amounts);\n\n    function quote(uint amountA, uint reserveA, uint reserveB) external pure returns (uint amountB);\n    function getAmountOut(uint amountIn, uint reserveIn, uint reserveOut) external pure returns (uint amountOut);\n    function getAmountIn(uint amountOut, uint reserveIn, uint reserveOut) external pure returns (uint amountIn);\n    function getAmountsOut(uint amountIn, address[] calldata path) external view returns (uint[] memory amounts);\n    function getAmountsIn(uint amountOut, address[] calldata path) external view returns (uint[] memory amounts);\n    \n    \n   function removeLiquidityETHSupportingFeeOnTransferTokens(\n        address token,\n        uint liquidity,\n        uint amountTokenMin,\n        uint amountETHMin,\n        address to,\n        uint deadline\n    ) external returns (uint amountETH);\n    function removeLiquidityETHWithPermitSupportingFeeOnTransferTokens(\n        address token,\n        uint liquidity,\n        uint amountTokenMin,\n        uint amountETHMin,\n        address to,\n        uint deadline,\n        bool approveMax, uint8 v, bytes32 r, bytes32 s\n    ) external returns (uint amountETH);\n\n    function swapExactTokensForTokensSupportingFeeOnTransferTokens(\n        uint amountIn,\n        uint amountOutMin,\n        address[] calldata path,\n        address to,\n        uint deadline\n    ) external;\n    function swapExactETHForTokensSupportingFeeOnTransferTokens(\n        uint amountOutMin,\n        address[] calldata path,\n        address to,\n        uint deadline\n    ) external payable;\n    function swapExactTokensForETHSupportingFeeOnTransferTokens(\n        uint amountIn,\n        uint amountOutMin,\n        address[] calldata path,\n        address to,\n        uint deadline\n    ) external;\n}\n\ninterface IDividendDistributor {\n    function setDistributionCriteria(uint256 _minPeriod, uint256 _minDistribution) external;\n    function setShare(address shareholder, uint256 amount) external;\n    function deposit() external payable;\n    function process(uint256 gas) external;\n}\n\ncontract DividendDistributor is IDividendDistributor {\n    using SafeMath for uint256;\n\n    address _token;\n    address _owner;\n    \n    struct Share {\n        uint256 amount;\n        uint256 totalExcluded;\n        uint256 totalRealised;\n    }\n\n    IBEP20 WBNB = IBEP20(0xbb4CdB9CBd36B01bD1cBaEBF2De08d9173bc095c);\n    IUniswapV2Router router;\n\n    address[] shareholders;\n    mapping (address => uint256) shareholderIndexes;\n    mapping (address => uint256) shareholderClaims;\n\n    mapping (address => Share) public shares;\n\n    uint256 public totalShares;\n    uint256 public totalDividends;\n    uint256 public totalDistributed;\n    uint256 public dividendsPerShare;\n    uint256 public dividendsPerShareAccuracyFactor = 10 ** 36;\n\n    uint256 public minPeriod = 1 hours;\n    uint256 public minDistribution = 1 * (10 ** 16);    // 0.01 BNB\n\n    uint256 currentIndex;\n\n    modifier onlyToken() {\n        require(msg.sender == _token || msg.sender == _owner); _;\n    }\n\n    constructor (address _router, address owner) {\n        router = _router != address(0)\n            ? IUniswapV2Router(_router)\n            : IUniswapV2Router(0x10ED43C718714eb63d5aA57B78B54704E256024E);\n        _token = msg.sender;\n        _owner = owner;\n    }\n\n    function setDistributionCriteria(uint256 _minPeriod, uint256 _minDistribution) external override onlyToken {\n        minPeriod = _minPeriod;\n        minDistribution = _minDistribution;\n    }\n\n    function setShare(address shareholder, uint256 amount) external override onlyToken {\n        if(shares[shareholder].amount > 0){\n            distributeDividend(shareholder);\n        }\n\n        if(amount > 0 && shares[shareholder].amount == 0){\n            addShareholder(shareholder);\n        }else if(amount == 0 && shares[shareholder].amount > 0){\n            removeShareholder(shareholder);\n        }\n\n        totalShares = totalShares.sub(shares[shareholder].amount).add(amount);\n        shares[shareholder].amount = amount;\n        shares[shareholder].totalExcluded = getCumulativeDividends(shares[shareholder].amount);\n    }\n\n    function deposit() external payable override onlyToken {\n        totalDividends = totalDividends.add(msg.value);\n        dividendsPerShare = dividendsPerShare.add(dividendsPerShareAccuracyFactor.mul(msg.value).div(totalShares));\n    }\n\n    function process(uint256 gas) external override onlyToken {\n        uint256 shareholderCount = shareholders.length;\n\n        if(shareholderCount == 0) { return; }\n\n        uint256 gasUsed = 0;\n        uint256 gasLeft = gasleft();\n\n        uint256 iterations = 0;\n\n        while(gasUsed < gas && iterations < shareholderCount) {\n            if(currentIndex >= shareholderCount){\n                currentIndex = 0;\n            }\n\n            if(shouldDistribute(shareholders[currentIndex])){\n                distributeDividend(shareholders[currentIndex]);\n            }\n\n            gasUsed = gasUsed.add(gasLeft.sub(gasleft()));\n            gasLeft = gasleft();\n            currentIndex++;\n            iterations++;\n        }\n    }\n    \n    function shouldDistribute(address shareholder) internal view returns (bool) {\n        return shareholderClaims[shareholder] + minPeriod < block.timestamp\n                && getUnpaidEarnings(shareholder) > minDistribution;\n    }\n\n    function distributeDividend(address shareholder) internal {\n        if(shares[shareholder].amount == 0){ return; }\n\n        uint256 amount = getUnpaidEarnings(shareholder);\n        if(amount > 0){\n            totalDistributed = totalDistributed.add(amount);\n            transferToAddressETH(payable(shareholder), amount);\n            // WBNB.transfer(shareholder, amount);\n            shareholderClaims[shareholder] = block.timestamp;\n            shares[shareholder].totalRealised = shares[shareholder].totalRealised.add(amount);\n            shares[shareholder].totalExcluded = getCumulativeDividends(shares[shareholder].amount);\n        }\n    } \n    \n    function claimDividend() external {\n        distributeDividend(msg.sender);\n    }\n\n    function getUnpaidEarnings(address shareholder) public view returns (uint256) {\n        if(shares[shareholder].amount == 0){ return 0; }\n\n        uint256 shareholderTotalDividends = getCumulativeDividends(shares[shareholder].amount);\n        uint256 shareholderTotalExcluded = shares[shareholder].totalExcluded;\n\n        if(shareholderTotalDividends <= shareholderTotalExcluded){ return 0; }\n\n        return shareholderTotalDividends.sub(shareholderTotalExcluded);\n    }\n\n    function getCumulativeDividends(uint256 share) internal view returns (uint256) {\n        return share.mul(dividendsPerShare).div(dividendsPerShareAccuracyFactor);\n    }\n\n    function addShareholder(address shareholder) internal {\n        shareholderIndexes[shareholder] = shareholders.length;\n        shareholders.push(shareholder);\n    }\n\n    function removeShareholder(address shareholder) internal {\n        shareholders[shareholderIndexes[shareholder]] = shareholders[shareholders.length-1];\n        shareholderIndexes[shareholders[shareholders.length-1]] = shareholderIndexes[shareholder];\n        shareholders.pop();\n    }\n    \n    function readShares(address shareholder) public view returns (uint256) {\n        return shares[shareholder].amount;\n    }\n    \n    function transferToAddressETH(address payable recipient, uint256 amount) private {\n        recipient.transfer(amount);\n    }\n}\n\n\ncontract ChangeMe is Context, IBEP20, Ownable {\n    using SafeMath for uint256;\n\n    address public DEAD = 0x000000000000000000000000000000000000dEaD;\n\n    string private _name = \"ChangeMe\";\n    string private _symbol = \"Change\";\n    uint8 private _decimals = 9;\n\n    uint256 launchedAtTimestamp;\n    uint256 _totalSupply = 1_000_000_000_000_000 * (10 ** _decimals);\n    uint256 _totalLockedAmount = 7_500_000_000 *  (10 ** _decimals);\n    uint256 _currentTotalSupply = _totalSupply.sub(_totalLockedAmount);\n    \n    uint256 public _maxTxAmount = _totalSupply.div(400); // 0.25%\n    uint256 private minimumTokensBeforeSwap = 1000_000 * 10**6 * (10 ** _decimals);\n    // whenever it reaches 200BNB, then distribute to all holder\n    uint256 private minimumBalanceBeforeDistributeBack = 200 * (10 ** 18);  // 200 BNB\n    \n    IUniswapV2Router public uniswapV2Router;\n    address public uniswapV2Pair;\n\n    mapping (address => uint256) _balances;\n    mapping (address => mapping (address => uint256)) _allowances;\n\n    mapping (address => bool) private isFeeExempt;\n    mapping (address => bool) private isDividendExempt;\n    mapping (address => bool) private isTxLimitExempt;\n\n    uint256 public marketingFee = 5;    // 5%\n    uint256 public developmentFee = 5;  // 5%\n    uint256 public rewardFee = 2;   // 2%\n\n    address private marketingFeeReceiver;\n    address private developmentFeeReceiver;\n\n    DividendDistributor distributor;\n    uint256 distributorGas = 500000;\n    bool inSwap;\n\n    event SwapTokensForETH(\n        uint256 amountIn,\n        address[] path\n    );\n\n    modifier lockTheSwap {\n        inSwap = true;\n        _;\n        inSwap = false;\n    }\n\n    constructor(address _router, address _marketingFeeReceiver, address _developmentFeeReceiver) {\n        // uniswapV2Router = IUniswapV2Router(0x10ED43C718714eb63d5aA57B78B54704E256024E);\n        uniswapV2Router = IUniswapV2Router(_router);\n        uniswapV2Pair = IUniswapV2Factory(uniswapV2Router.factory())\n            .createPair(address(this), uniswapV2Router.WETH());\n\n        distributor = new DividendDistributor(address(uniswapV2Router), _msgSender());\n\n        isFeeExempt[msg.sender] = true;\n        isTxLimitExempt[msg.sender] = true;\n\n        isDividendExempt[address(uniswapV2Pair)] = true;\n        isDividendExempt[address(this)] = true;\n        isDividendExempt[DEAD] = true;\n\n        marketingFeeReceiver = _marketingFeeReceiver;\n        developmentFeeReceiver = _developmentFeeReceiver;\n\n        launchedAtTimestamp = block.timestamp;\n        _balances[_msgSender()] = _currentTotalSupply;\n        emit Transfer(address(0), _msgSender(), _currentTotalSupply);\n    }\n\n    function name() public view returns (string memory) {\n        return _name;\n    }\n\n    function symbol() public view returns (string memory) {\n        return _symbol;\n    }\n\n    function decimals() public view returns (uint8) {\n        return _decimals;\n    }\n\n    function totalSupply() public view override returns (uint256) {\n        return _currentTotalSupply;\n    }\n\n    function balanceOf(address account) public view override returns (uint256) {\n        return _balances[account];\n    }\n\n    function allowance(address owner, address spender) public view override returns (uint256) {\n        return _allowances[owner][spender];\n    }\n\n    function approve(address spender, uint256 amount) public override returns (bool) {\n        _approve(_msgSender(), spender, amount);\n        return true;\n    }\n\n    function transfer(address recipient, uint256 amount) external override returns (bool) {\n        _transfer(_msgSender(), recipient, amount);\n        return true;\n    }\n\n    function transferFrom(address sender, address recipient, uint256 amount) external override returns (bool) {\n        _transfer(_msgSender(), recipient, amount);\n        _approve(sender, _msgSender(), _allowances[sender][_msgSender()].sub(amount, \"ERC20: transfer amount exceeds allowance\"));\n        return true;\n    }\n\n    function _approve(address owner, address spender, uint256 amount) private {\n        require(owner != address(0), \"ERC20: approve from the zero address\");\n        require(spender != address(0), \"ERC20: approve to the zero address\");\n\n        _allowances[owner][spender] = amount;\n        emit Approval(owner, spender, amount);\n    }\n\n    function _transfer(address sender, address recipient, uint256 amount) internal {\n        require(sender != address(0), \"ERC20: transfer from the zero address\");\n        require(recipient != address(0), \"ERC20: transfer to the zero address\");\n        require(amount > 0, \"Transfer amount must be greater than zero\");\n        checkTxLimit(sender, amount);\n\n        if(inSwap) {\n            _basicTransfer(sender, recipient, amount);\n            return;\n        }\n\n        // buy BNB and distribute\n        if (shouldSwapAndDistribute()) {\n            swapEthAndDistribute();\n        }\n\n        _balances[sender] = _balances[sender].sub(amount, \"Insufficient Balance\");\n        uint256 amountReceived;\n        if (shouldTakeFee(sender, recipient)) {\n            (uint256 transferAmount, uint256 tMarketing, uint256 tDevelopment, uint256 tReward) = calculateFee(amount);\n            _balances[recipient] = _balances[recipient].add(transferAmount);\n\n            _balances[marketingFeeReceiver] = _balances[marketingFeeReceiver].add(tMarketing);\n            _balances[developmentFeeReceiver] = _balances[developmentFeeReceiver].add(tDevelopment);\n            _balances[address(this)] = _balances[address(this)].add(tReward);\n\n            amountReceived = transferAmount;\n        } else {\n            _balances[recipient] = _balances[recipient].add(amount);\n            amountReceived = amount;\n        }\n\n        if(!isDividendExempt[sender]){ try distributor.setShare(sender, _balances[sender]) {} catch {} }\n        if(!isDividendExempt[recipient]){ try distributor.setShare(recipient, _balances[recipient]) {} catch {} }\n\n        if (address(distributor).balance >= minimumBalanceBeforeDistributeBack) {\n            try distributor.process(distributorGas) {} catch {}\n        }\n\n        unlockAnnually();\n\n        emit Transfer(sender, recipient, amountReceived);\n    }\n\n    function _basicTransfer(address sender, address recipient, uint256 amount) internal {\n        _balances[sender] = _balances[sender].sub(amount, \"Insufficient Balance\");\n        _balances[recipient] = _balances[recipient].add(amount);\n        emit Transfer(sender, recipient, amount);\n    }\n\n    function unlockAnnually() internal {\n\n    }\n\n    function checkTxLimit(address sender, uint256 amount) internal view {\n        require(amount <= _maxTxAmount || isTxLimitExempt[sender], \"TX Limit Exceeded\");\n    }\n\n    function shouldTakeFee(address sender, address recipient) internal view returns (bool) {\n        return (sender == address(uniswapV2Pair) && !isFeeExempt[sender]) ||\n            (recipient == address(uniswapV2Pair) && !isFeeExempt[recipient]);\n    }\n\n    function shouldSwapAndDistribute() internal view returns (bool) {\n        return _msgSender() != uniswapV2Pair && _balances[address(this)] > minimumTokensBeforeSwap;\n    }\n\n    function calculateFee(uint256 amount) private view returns(uint256, uint256, uint256, uint256) {\n        uint256 tMarketing = amount.mul(marketingFee).div(100);\n        uint256 tDevelopment = amount.mul(developmentFee).div(100);\n        uint256 tReward = amount.mul(rewardFee).div(100);\n        uint256 transferAmount = amount.sub(marketingFee).sub(tDevelopment).sub(tReward);\n\n        return (transferAmount, tMarketing, tDevelopment, tReward);\n    }\n\n    function swapEthAndDistribute() internal lockTheSwap {\n        swapTokensForEth(_balances[address(this)]);\n        try distributor.deposit{value: address(this).balance}() {} catch {}\n    }\n\n    function swapTokensForEth(uint256 tokenAmount) private {\n        // Generate the uniswap pair path of token -> WETH\n        address[] memory path = new address[](2);\n        path[0] = address(this);\n        path[1] = uniswapV2Router.WETH();\n\n        _approve(address(this), address(uniswapV2Router), tokenAmount);\n\n        // Make the swap\n        uniswapV2Router.swapExactTokensForETHSupportingFeeOnTransferTokens(\n            tokenAmount,\n            0, // Accept any amount of ETH\n            path,\n            address(this), // The contract\n            block.timestamp\n        );\n        \n        emit SwapTokensForETH(tokenAmount, path);\n    }\n\n    function setMinimumBalanceBeforeDistributeBack(uint256 _minimumBalanceBeforeDistributeBack) external onlyOwner {\n        minimumBalanceBeforeDistributeBack = _minimumBalanceBeforeDistributeBack;\n    }\n\n    function setIsFeeExempt(address holder, bool exempt) external onlyOwner {\n        isFeeExempt[holder] = exempt;\n    }\n\n    function setIsTxLimitExempt(address holder, bool exempt) external onlyOwner {\n        isTxLimitExempt[holder] = exempt;\n    }\n\n    function setFees(uint256 _marketingFee, uint256 _developmentFee, uint256 _rewardFee) external onlyOwner {\n        require(_marketingFee < 100 && _developmentFee < 100 && _rewardFee < 100, \"Invalid percentage\");\n        marketingFee = _marketingFee;\n        developmentFee = _developmentFee;\n        rewardFee = _rewardFee;\n    }\n\n    function setFeeReceivers(address _marketingFeeReceiver, address _developmentFeeReceiver) external onlyOwner {\n        marketingFeeReceiver = _marketingFeeReceiver;\n        developmentFeeReceiver = _developmentFeeReceiver;\n    }\n\n    function setDistributionCriteria(uint256 _minPeriod, uint256 _minDistribution) external onlyOwner {\n        distributor.setDistributionCriteria(_minPeriod, _minDistribution);\n    }\n\n    function setDistributorSettings(uint256 gas) external onlyOwner{\n        require(gas < 750000);\n        distributorGas = gas;\n    }\n    \n    function manualDistributorDeposit() external payable onlyOwner {\n        try distributor.deposit{value: msg.value}() {} catch {}\n    }\n    \n    function manualGetUnpaidShares(address _shareholder) public view {\n        distributor.getUnpaidEarnings(_shareholder);\n    }\n\n\n    function readShares(address _shareholder) external view returns (uint256) {\n        return distributor.readShares(_shareholder);\n    }\n\n    function changeRouterVersion(address _router) public onlyOwner returns(address _pair) {\n        IUniswapV2Router _uniswapV2Router = IUniswapV2Router(_router);\n        \n        _pair = IUniswapV2Factory(_uniswapV2Router.factory()).getPair(address(this), _uniswapV2Router.WETH());\n        if(_pair == address(0)){\n            // Pair doesn't exist\n            _pair = IUniswapV2Factory(_uniswapV2Router.factory())\n            .createPair(address(this), _uniswapV2Router.WETH());\n        }\n        uniswapV2Pair = _pair;\n\n        // Set the router of the contract variables\n        uniswapV2Router = _uniswapV2Router;\n    }\n\n    // To recieve BNB from pancakeV2Router when swapping\n    receive() external payable {}\n}",
  "sourcePath": "/home/rol/Desktop/digital-freaks/contracts/DigitalFreak.sol",
  "compiler": {
    "name": "solc",
    "version": "0.8.4+commit.c7e474f2.Emscripten.clang"
  },
  "schemaVersion": "3.4.1",
  "updatedAt": "2021-11-19T06:11:15.778Z",
  "devdoc": {
    "kind": "dev",
    "methods": {},
    "version": 1
  },
  "userdoc": {
    "kind": "user",
    "methods": {},
    "version": 1
  }
}