{
  "contractName": "Ownable",
  "abi": [
    {
      "inputs": [],
      "stateMutability": "nonpayable",
      "type": "constructor"
    },
    {
      "anonymous": false,
      "inputs": [
        {
          "indexed": true,
          "internalType": "address",
          "name": "previousOwner",
          "type": "address"
        },
        {
          "indexed": true,
          "internalType": "address",
          "name": "newOwner",
          "type": "address"
        }
      ],
      "name": "OwnershipTransferred",
      "type": "event"
    },
    {
      "inputs": [],
      "name": "owner",
      "outputs": [
        {
          "internalType": "address",
          "name": "",
          "type": "address"
        }
      ],
      "stateMutability": "view",
      "type": "function"
    },
    {
      "inputs": [],
      "name": "renounceOwnership",
      "outputs": [],
      "stateMutability": "nonpayable",
      "type": "function"
    },
    {
      "inputs": [
        {
          "internalType": "address",
          "name": "newOwner",
          "type": "address"
        }
      ],
      "name": "transferOwnership",
      "outputs": [],
      "stateMutability": "nonpayable",
      "type": "function"
    },
    {
      "inputs": [],
      "name": "getUnlockTime",
      "outputs": [
        {
          "internalType": "uint256",
          "name": "",
          "type": "uint256"
        }
      ],
      "stateMutability": "view",
      "type": "function"
    },
    {
      "inputs": [],
      "name": "getTime",
      "outputs": [
        {
          "internalType": "uint256",
          "name": "",
          "type": "uint256"
        }
      ],
      "stateMutability": "view",
      "type": "function"
    },
    {
      "inputs": [
        {
          "internalType": "uint256",
          "name": "time",
          "type": "uint256"
        }
      ],
      "name": "lock",
      "outputs": [],
      "stateMutability": "nonpayable",
      "type": "function"
    },
    {
      "inputs": [],
      "name": "unlock",
      "outputs": [],
      "stateMutability": "nonpayable",
      "type": "function"
    }
  ],
  "bytecode": "0x608060405234801561001057600080fd5b5060006100216100c460201b60201c565b9050806000806101000a81548173ffffffffffffffffffffffffffffffffffffffff021916908373ffffffffffffffffffffffffffffffffffffffff1602179055508073ffffffffffffffffffffffffffffffffffffffff16600073ffffffffffffffffffffffffffffffffffffffff167f8be0079c531659141344cd1fd0a4f28419497f9722a3daafe3b4186f6b6457e060405160405180910390a3506100cc565b600033905090565b610c1d806100db6000396000f3fe608060405234801561001057600080fd5b506004361061007d5760003560e01c80638da5cb5b1161005b5780638da5cb5b146100c8578063a69df4b5146100e6578063dd467064146100f0578063f2fde38b1461010c5761007d565b8063557ed1ba14610082578063602bc62b146100a0578063715018a6146100be575b600080fd5b61008a610128565b60405161009791906109dc565b60405180910390f35b6100a8610130565b6040516100b591906109dc565b60405180910390f35b6100c661013a565b005b6100d061028d565b6040516100dd9190610941565b60405180910390f35b6100ee6102b6565b005b61010a6004803603810190610105919061086e565b61048a565b005b61012660048036038101906101219190610845565b610651565b005b600042905090565b6000600254905090565b610142610813565b73ffffffffffffffffffffffffffffffffffffffff1660008054906101000a900473ffffffffffffffffffffffffffffffffffffffff1673ffffffffffffffffffffffffffffffffffffffff16146101cf576040517f08c379a00000000000000000000000000000000000000000000000000000000081526004016101c69061097c565b60405180910390fd5b600073ffffffffffffffffffffffffffffffffffffffff1660008054906101000a900473ffffffffffffffffffffffffffffffffffffffff1673ffffffffffffffffffffffffffffffffffffffff167f8be0079c531659141344cd1fd0a4f28419497f9722a3daafe3b4186f6b6457e060405160405180910390a360008060006101000a81548173ffffffffffffffffffffffffffffffffffffffff021916908373ffffffffffffffffffffffffffffffffffffffff160217905550565b60008060009054906101000a900473ffffffffffffffffffffffffffffffffffffffff16905090565b3373ffffffffffffffffffffffffffffffffffffffff16600160009054906101000a900473ffffffffffffffffffffffffffffffffffffffff1673ffffffffffffffffffffffffffffffffffffffff1614610346576040517f08c379a000000000000000000000000000000000000000000000000000000000815260040161033d906109bc565b60405180910390fd5b600254421161038a576040517f08c379a00000000000000000000000000000000000000000000000000000000081526004016103819061099c565b60405180910390fd5b600160009054906101000a900473ffffffffffffffffffffffffffffffffffffffff1673ffffffffffffffffffffffffffffffffffffffff1660008054906101000a900473ffffffffffffffffffffffffffffffffffffffff1673ffffffffffffffffffffffffffffffffffffffff167f8be0079c531659141344cd1fd0a4f28419497f9722a3daafe3b4186f6b6457e060405160405180910390a3600160009054906101000a900473ffffffffffffffffffffffffffffffffffffffff166000806101000a81548173ffffffffffffffffffffffffffffffffffffffff021916908373ffffffffffffffffffffffffffffffffffffffff160217905550565b610492610813565b73ffffffffffffffffffffffffffffffffffffffff1660008054906101000a900473ffffffffffffffffffffffffffffffffffffffff1673ffffffffffffffffffffffffffffffffffffffff161461051f576040517f08c379a00000000000000000000000000000000000000000000000000000000081526004016105169061097c565b60405180910390fd5b60008054906101000a900473ffffffffffffffffffffffffffffffffffffffff16600160006101000a81548173ffffffffffffffffffffffffffffffffffffffff021916908373ffffffffffffffffffffffffffffffffffffffff16021790555060008060006101000a81548173ffffffffffffffffffffffffffffffffffffffff021916908373ffffffffffffffffffffffffffffffffffffffff16021790555080426105cd9190610a08565b600281905550600073ffffffffffffffffffffffffffffffffffffffff1660008054906101000a900473ffffffffffffffffffffffffffffffffffffffff1673ffffffffffffffffffffffffffffffffffffffff167f8be0079c531659141344cd1fd0a4f28419497f9722a3daafe3b4186f6b6457e060405160405180910390a350565b610659610813565b73ffffffffffffffffffffffffffffffffffffffff1660008054906101000a900473ffffffffffffffffffffffffffffffffffffffff1673ffffffffffffffffffffffffffffffffffffffff16146106e6576040517f08c379a00000000000000000000000000000000000000000000000000000000081526004016106dd9061097c565b60405180910390fd5b600073ffffffffffffffffffffffffffffffffffffffff168173ffffffffffffffffffffffffffffffffffffffff161415610756576040517f08c379a000000000000000000000000000000000000000000000000000000000815260040161074d9061095c565b60405180910390fd5b8073ffffffffffffffffffffffffffffffffffffffff1660008054906101000a900473ffffffffffffffffffffffffffffffffffffffff1673ffffffffffffffffffffffffffffffffffffffff167f8be0079c531659141344cd1fd0a4f28419497f9722a3daafe3b4186f6b6457e060405160405180910390a3806000806101000a81548173ffffffffffffffffffffffffffffffffffffffff021916908373ffffffffffffffffffffffffffffffffffffffff16021790555050565b600033905090565b60008135905061082a81610bb9565b92915050565b60008135905061083f81610bd0565b92915050565b60006020828403121561085757600080fd5b60006108658482850161081b565b91505092915050565b60006020828403121561088057600080fd5b600061088e84828501610830565b91505092915050565b6108a081610a5e565b82525050565b60006108b36026836109f7565b91506108be82610ac9565b604082019050919050565b60006108d66020836109f7565b91506108e182610b18565b602082019050919050565b60006108f9601f836109f7565b915061090482610b41565b602082019050919050565b600061091c6023836109f7565b915061092782610b6a565b604082019050919050565b61093b81610a90565b82525050565b60006020820190506109566000830184610897565b92915050565b60006020820190508181036000830152610975816108a6565b9050919050565b60006020820190508181036000830152610995816108c9565b9050919050565b600060208201905081810360008301526109b5816108ec565b9050919050565b600060208201905081810360008301526109d58161090f565b9050919050565b60006020820190506109f16000830184610932565b92915050565b600082825260208201905092915050565b6000610a1382610a90565b9150610a1e83610a90565b9250827fffffffffffffffffffffffffffffffffffffffffffffffffffffffffffffffff03821115610a5357610a52610a9a565b5b828201905092915050565b6000610a6982610a70565b9050919050565b600073ffffffffffffffffffffffffffffffffffffffff82169050919050565b6000819050919050565b7f4e487b7100000000000000000000000000000000000000000000000000000000600052601160045260246000fd5b7f4f776e61626c653a206e6577206f776e657220697320746865207a65726f206160008201527f6464726573730000000000000000000000000000000000000000000000000000602082015250565b7f4f776e61626c653a2063616c6c6572206973206e6f7420746865206f776e6572600082015250565b7f436f6e7472616374206973206c6f636b656420756e74696c2037206461797300600082015250565b7f596f7520646f6e27742068617665207065726d697373696f6e20746f20756e6c60008201527f6f636b0000000000000000000000000000000000000000000000000000000000602082015250565b610bc281610a5e565b8114610bcd57600080fd5b50565b610bd981610a90565b8114610be457600080fd5b5056fea2646970667358221220b83b404e34e93c7194815ec70b019d2c921df2061a2eff3e6e370a5e5abd43bc64736f6c63430008040033",
  "immutableReferences": {},
  "source": "// SPDX-License-Identifier: UNLICENSED\n\npragma solidity ^0.8.4;\n\nabstract contract Context {\n    function _msgSender() internal view virtual returns (address payable) {\n        return payable(msg.sender);\n    }\n\n    function _msgData() internal view virtual returns (bytes memory) {\n        this; // silence state mutability warning without generating bytecode - see https://github.com/ethereum/solidity/issues/2691\n        return msg.data;\n    }\n}\n\n\ninterface IBEP20 {\n\n    function totalSupply() external view returns (uint256);\n    function balanceOf(address account) external view returns (uint256);\n    function transfer(address recipient, uint256 amount) external returns (bool);\n    function allowance(address owner, address spender) external view returns (uint256);\n    function approve(address spender, uint256 amount) external returns (bool);\n    function transferFrom(address sender, address recipient, uint256 amount) external returns (bool);\n    event Transfer(address indexed from, address indexed to, uint256 value);\n    event Approval(address indexed owner, address indexed spender, uint256 value);\n      \n}\n\nlibrary SafeMath {\n\n    function add(uint256 a, uint256 b) internal pure returns (uint256) {\n        uint256 c = a + b;\n        require(c >= a, \"SafeMath: addition overflow\");\n\n        return c;\n    }\n\n    function sub(uint256 a, uint256 b) internal pure returns (uint256) {\n        return sub(a, b, \"SafeMath: subtraction overflow\");\n    }\n\n    function sub(uint256 a, uint256 b, string memory errorMessage) internal pure returns (uint256) {\n        require(b <= a, errorMessage);\n        uint256 c = a - b;\n\n        return c;\n    }\n\n    function mul(uint256 a, uint256 b) internal pure returns (uint256) {\n        if (a == 0) {\n            return 0;\n        }\n\n        uint256 c = a * b;\n        require(c / a == b, \"SafeMath: multiplication overflow\");\n\n        return c;\n    }\n\n\n    function div(uint256 a, uint256 b) internal pure returns (uint256) {\n        return div(a, b, \"SafeMath: division by zero\");\n    }\n\n    function div(uint256 a, uint256 b, string memory errorMessage) internal pure returns (uint256) {\n        require(b > 0, errorMessage);\n        uint256 c = a / b;\n        // assert(a == b * c + a % b); // There is no case in which this doesn't hold\n\n        return c;\n    }\n\n    function mod(uint256 a, uint256 b) internal pure returns (uint256) {\n        return mod(a, b, \"SafeMath: modulo by zero\");\n    }\n\n    function mod(uint256 a, uint256 b, string memory errorMessage) internal pure returns (uint256) {\n        require(b != 0, errorMessage);\n        return a % b;\n    }\n}\n\ncontract Ownable is Context {\n    address private _owner;\n    address private _previousOwner;\n    uint256 private _lockTime;\n\n    event OwnershipTransferred(address indexed previousOwner, address indexed newOwner);\n\n    constructor () {\n        address msgSender = _msgSender();\n        _owner = msgSender;\n        emit OwnershipTransferred(address(0), msgSender);\n    }\n\n    function owner() public view returns (address) {\n        return _owner;\n    }   \n    \n    modifier onlyOwner() {\n        require(_owner == _msgSender(), \"Ownable: caller is not the owner\");\n        _;\n    }\n    \n    function renounceOwnership() public virtual onlyOwner {\n        emit OwnershipTransferred(_owner, address(0));\n        _owner = address(0);\n    }\n\n    function transferOwnership(address newOwner) public virtual onlyOwner {\n        require(newOwner != address(0), \"Ownable: new owner is the zero address\");\n        emit OwnershipTransferred(_owner, newOwner);\n        _owner = newOwner;\n        \n    }\n\n    function getUnlockTime() public view returns (uint256) {\n        return _lockTime;\n    }\n    \n    function getTime() public view returns (uint256) {\n        return block.timestamp;\n    }\n\n    function lock(uint256 time) public virtual onlyOwner {\n        _previousOwner = _owner;\n        _owner = address(0);\n        _lockTime = block.timestamp + time;\n        emit OwnershipTransferred(_owner, address(0));\n    }\n    \n    function unlock() public virtual {\n        require(_previousOwner == msg.sender, \"You don't have permission to unlock\");\n        require(block.timestamp > _lockTime , \"Contract is locked until 7 days\");\n        emit OwnershipTransferred(_owner, _previousOwner);\n        _owner = _previousOwner;\n    }\n}\n\ninterface IUniswapV2Factory {\n    event PairCreated(address indexed token0, address indexed token1, address pair, uint);\n\n    function feeTo() external view returns (address);\n    function feeToSetter() external view returns (address);\n\n    function getPair(address tokenA, address tokenB) external view returns (address pair);\n    function allPairs(uint) external view returns (address pair);\n    function allPairsLength() external view returns (uint);\n\n    function createPair(address tokenA, address tokenB) external returns (address pair);\n\n    function setFeeTo(address) external;\n    function setFeeToSetter(address) external;\n}\n\ninterface IUniswapV2Pair {\n    event Approval(address indexed owner, address indexed spender, uint value);\n    event Transfer(address indexed from, address indexed to, uint value);\n\n    function name() external pure returns (string memory);\n    function symbol() external pure returns (string memory);\n    function decimals() external pure returns (uint8);\n    function totalSupply() external view returns (uint);\n    function balanceOf(address owner) external view returns (uint);\n    function allowance(address owner, address spender) external view returns (uint);\n\n    function approve(address spender, uint value) external returns (bool);\n    function transfer(address to, uint value) external returns (bool);\n    function transferFrom(address from, address to, uint value) external returns (bool);\n\n    function DOMAIN_SEPARATOR() external view returns (bytes32);\n    function PERMIT_TYPEHASH() external pure returns (bytes32);\n    function nonces(address owner) external view returns (uint);\n\n    function permit(address owner, address spender, uint value, uint deadline, uint8 v, bytes32 r, bytes32 s) external;\n    \n    event Burn(address indexed sender, uint amount0, uint amount1, address indexed to);\n    event Swap(\n        address indexed sender,\n        uint amount0In,\n        uint amount1In,\n        uint amount0Out,\n        uint amount1Out,\n        address indexed to\n    );\n    event Sync(uint112 reserve0, uint112 reserve1);\n\n    function MINIMUM_LIQUIDITY() external pure returns (uint);\n    function factory() external view returns (address);\n    function token0() external view returns (address);\n    function token1() external view returns (address);\n    function getReserves() external view returns (uint112 reserve0, uint112 reserve1, uint32 blockTimestampLast);\n    function price0CumulativeLast() external view returns (uint);\n    function price1CumulativeLast() external view returns (uint);\n    function kLast() external view returns (uint);\n\n    function burn(address to) external returns (uint amount0, uint amount1);\n    function swap(uint amount0Out, uint amount1Out, address to, bytes calldata data) external;\n    function skim(address to) external;\n    function sync() external;\n\n    function initialize(address, address) external;\n}\n\ninterface IUniswapV2Router {\n    function factory() external pure returns (address);\n    function WETH() external pure returns (address);\n\n    function addLiquidity(\n        address tokenA,\n        address tokenB,\n        uint amountADesired,\n        uint amountBDesired,\n        uint amountAMin,\n        uint amountBMin,\n        address to,\n        uint deadline\n    ) external returns (uint amountA, uint amountB, uint liquidity);\n    function addLiquidityETH(\n        address token,\n        uint amountTokenDesired,\n        uint amountTokenMin,\n        uint amountETHMin,\n        address to,\n        uint deadline\n    ) external payable returns (uint amountToken, uint amountETH, uint liquidity);\n    function removeLiquidity(\n        address tokenA,\n        address tokenB,\n        uint liquidity,\n        uint amountAMin,\n        uint amountBMin,\n        address to,\n        uint deadline\n    ) external returns (uint amountA, uint amountB);\n    function removeLiquidityETH(\n        address token,\n        uint liquidity,\n        uint amountTokenMin,\n        uint amountETHMin,\n        address to,\n        uint deadline\n    ) external returns (uint amountToken, uint amountETH);\n    function removeLiquidityWithPermit(\n        address tokenA,\n        address tokenB,\n        uint liquidity,\n        uint amountAMin,\n        uint amountBMin,\n        address to,\n        uint deadline,\n        bool approveMax, uint8 v, bytes32 r, bytes32 s\n    ) external returns (uint amountA, uint amountB);\n    function removeLiquidityETHWithPermit(\n        address token,\n        uint liquidity,\n        uint amountTokenMin,\n        uint amountETHMin,\n        address to,\n        uint deadline,\n        bool approveMax, uint8 v, bytes32 r, bytes32 s\n    ) external returns (uint amountToken, uint amountETH);\n    function swapExactTokensForTokens(\n        uint amountIn,\n        uint amountOutMin,\n        address[] calldata path,\n        address to,\n        uint deadline\n    ) external returns (uint[] memory amounts);\n    function swapTokensForExactTokens(\n        uint amountOut,\n        uint amountInMax,\n        address[] calldata path,\n        address to,\n        uint deadline\n    ) external returns (uint[] memory amounts);\n    function swapExactETHForTokens(uint amountOutMin, address[] calldata path, address to, uint deadline)\n        external\n        payable\n        returns (uint[] memory amounts);\n    function swapTokensForExactETH(uint amountOut, uint amountInMax, address[] calldata path, address to, uint deadline)\n        external\n        returns (uint[] memory amounts);\n    function swapExactTokensForETH(uint amountIn, uint amountOutMin, address[] calldata path, address to, uint deadline)\n        external\n        returns (uint[] memory amounts);\n    function swapETHForExactTokens(uint amountOut, address[] calldata path, address to, uint deadline)\n        external\n        payable\n        returns (uint[] memory amounts);\n\n    function quote(uint amountA, uint reserveA, uint reserveB) external pure returns (uint amountB);\n    function getAmountOut(uint amountIn, uint reserveIn, uint reserveOut) external pure returns (uint amountOut);\n    function getAmountIn(uint amountOut, uint reserveIn, uint reserveOut) external pure returns (uint amountIn);\n    function getAmountsOut(uint amountIn, address[] calldata path) external view returns (uint[] memory amounts);\n    function getAmountsIn(uint amountOut, address[] calldata path) external view returns (uint[] memory amounts);\n    \n    \n   function removeLiquidityETHSupportingFeeOnTransferTokens(\n        address token,\n        uint liquidity,\n        uint amountTokenMin,\n        uint amountETHMin,\n        address to,\n        uint deadline\n    ) external returns (uint amountETH);\n    function removeLiquidityETHWithPermitSupportingFeeOnTransferTokens(\n        address token,\n        uint liquidity,\n        uint amountTokenMin,\n        uint amountETHMin,\n        address to,\n        uint deadline,\n        bool approveMax, uint8 v, bytes32 r, bytes32 s\n    ) external returns (uint amountETH);\n\n    function swapExactTokensForTokensSupportingFeeOnTransferTokens(\n        uint amountIn,\n        uint amountOutMin,\n        address[] calldata path,\n        address to,\n        uint deadline\n    ) external;\n    function swapExactETHForTokensSupportingFeeOnTransferTokens(\n        uint amountOutMin,\n        address[] calldata path,\n        address to,\n        uint deadline\n    ) external payable;\n    function swapExactTokensForETHSupportingFeeOnTransferTokens(\n        uint amountIn,\n        uint amountOutMin,\n        address[] calldata path,\n        address to,\n        uint deadline\n    ) external;\n}\n\ninterface IDividendDistributor {\n    function setDistributionCriteria(uint256 _minPeriod, uint256 _minDistribution) external;\n    function setShare(address shareholder, uint256 amount) external;\n    function deposit() external payable;\n    function process(uint256 gas) external;\n}\n\ncontract DividendDistributor is IDividendDistributor {\n    using SafeMath for uint256;\n\n    address _token;\n    address _owner;\n    \n    struct Share {\n        uint256 amount;\n        uint256 totalExcluded;\n        uint256 totalRealised;\n    }\n\n    IBEP20 WBNB = IBEP20(0xbb4CdB9CBd36B01bD1cBaEBF2De08d9173bc095c);\n    IUniswapV2Router router;\n\n    address[] shareholders;\n    mapping (address => uint256) shareholderIndexes;\n    mapping (address => uint256) shareholderClaims;\n\n    mapping (address => Share) public shares;\n\n    uint256 public totalShares;\n    uint256 public totalDividends;\n    uint256 public totalDistributed;\n    uint256 public dividendsPerShare;\n    uint256 public dividendsPerShareAccuracyFactor = 10 ** 36;\n\n    uint256 public minPeriod = 1 hours;\n    uint256 public minDistribution = 1 * (10 ** 16);    // 0.01 BNB\n\n    uint256 currentIndex;\n\n    modifier onlyToken() {\n        require(msg.sender == _token || msg.sender == _owner); _;\n    }\n\n    constructor (address _router, address owner) {\n        router = _router != address(0)\n            ? IUniswapV2Router(_router)\n            : IUniswapV2Router(0x10ED43C718714eb63d5aA57B78B54704E256024E);\n        _token = msg.sender;\n        _owner = owner;\n    }\n\n    function setDistributionCriteria(uint256 _minPeriod, uint256 _minDistribution) external override onlyToken {\n        minPeriod = _minPeriod;\n        minDistribution = _minDistribution;\n    }\n\n    function setShare(address shareholder, uint256 amount) external override onlyToken {\n        if(shares[shareholder].amount > 0){\n            distributeDividend(shareholder);\n        }\n\n        if(amount > 0 && shares[shareholder].amount == 0){\n            addShareholder(shareholder);\n        }else if(amount == 0 && shares[shareholder].amount > 0){\n            removeShareholder(shareholder);\n        }\n\n        totalShares = totalShares.sub(shares[shareholder].amount).add(amount);\n        shares[shareholder].amount = amount;\n        shares[shareholder].totalExcluded = getCumulativeDividends(shares[shareholder].amount);\n    }\n\n    function deposit() external payable override onlyToken {\n        totalDividends = totalDividends.add(msg.value);\n        dividendsPerShare = dividendsPerShare.add(dividendsPerShareAccuracyFactor.mul(msg.value).div(totalShares));\n    }\n\n    function process(uint256 gas) external override onlyToken {\n        uint256 shareholderCount = shareholders.length;\n\n        if(shareholderCount == 0) { return; }\n\n        uint256 gasUsed = 0;\n        uint256 gasLeft = gasleft();\n\n        uint256 iterations = 0;\n\n        while(gasUsed < gas && iterations < shareholderCount) {\n            if(currentIndex >= shareholderCount){\n                currentIndex = 0;\n            }\n\n            if(shouldDistribute(shareholders[currentIndex])){\n                distributeDividend(shareholders[currentIndex]);\n            }\n\n            gasUsed = gasUsed.add(gasLeft.sub(gasleft()));\n            gasLeft = gasleft();\n            currentIndex++;\n            iterations++;\n        }\n    }\n    \n    function shouldDistribute(address shareholder) internal view returns (bool) {\n        return shareholderClaims[shareholder] + minPeriod < block.timestamp\n                && getUnpaidEarnings(shareholder) > minDistribution;\n    }\n\n    function distributeDividend(address shareholder) internal {\n        if(shares[shareholder].amount == 0){ return; }\n\n        uint256 amount = getUnpaidEarnings(shareholder);\n        if(amount > 0){\n            totalDistributed = totalDistributed.add(amount);\n            transferToAddressETH(payable(shareholder), amount);\n            // WBNB.transfer(shareholder, amount);\n            shareholderClaims[shareholder] = block.timestamp;\n            shares[shareholder].totalRealised = shares[shareholder].totalRealised.add(amount);\n            shares[shareholder].totalExcluded = getCumulativeDividends(shares[shareholder].amount);\n        }\n    } \n    \n    function claimDividend() external {\n        distributeDividend(msg.sender);\n    }\n\n    function getUnpaidEarnings(address shareholder) public view returns (uint256) {\n        if(shares[shareholder].amount == 0){ return 0; }\n\n        uint256 shareholderTotalDividends = getCumulativeDividends(shares[shareholder].amount);\n        uint256 shareholderTotalExcluded = shares[shareholder].totalExcluded;\n\n        if(shareholderTotalDividends <= shareholderTotalExcluded){ return 0; }\n\n        return shareholderTotalDividends.sub(shareholderTotalExcluded);\n    }\n\n    function getCumulativeDividends(uint256 share) internal view returns (uint256) {\n        return share.mul(dividendsPerShare).div(dividendsPerShareAccuracyFactor);\n    }\n\n    function addShareholder(address shareholder) internal {\n        shareholderIndexes[shareholder] = shareholders.length;\n        shareholders.push(shareholder);\n    }\n\n    function removeShareholder(address shareholder) internal {\n        shareholders[shareholderIndexes[shareholder]] = shareholders[shareholders.length-1];\n        shareholderIndexes[shareholders[shareholders.length-1]] = shareholderIndexes[shareholder];\n        shareholders.pop();\n    }\n    \n    function readShares(address shareholder) public view returns (uint256) {\n        return shares[shareholder].amount;\n    }\n    \n    function transferToAddressETH(address payable recipient, uint256 amount) private {\n        recipient.transfer(amount);\n    }\n}\n\n\ncontract ChangeMe is Context, IBEP20, Ownable {\n    using SafeMath for uint256;\n\n    address public DEAD = 0x000000000000000000000000000000000000dEaD;\n\n    string private _name = \"ChangeMe\";\n    string private _symbol = \"Change\";\n    uint8 private _decimals = 9;\n\n    uint256 launchedAtTimestamp;\n    uint256 _totalSupply = 1_000_000_000_000_000 * (10 ** _decimals);\n    uint256 _totalLockedAmount = 7_500_000_000 *  (10 ** _decimals);\n    uint256 _currentTotalSupply = _totalSupply.sub(_totalLockedAmount);\n    \n    uint256 public _maxTxAmount = _totalSupply.div(400); // 0.25%\n    uint256 private minimumTokensBeforeSwap = 1000_000 * 10**6 * (10 ** _decimals);\n    // whenever it reaches 200BNB, then distribute to all holder\n    uint256 private minimumBalanceBeforeDistributeBack = 200 * (10 ** 18);  // 200 BNB\n    \n    IUniswapV2Router public uniswapV2Router;\n    address public uniswapV2Pair;\n\n    mapping (address => uint256) _balances;\n    mapping (address => mapping (address => uint256)) _allowances;\n\n    mapping (address => bool) private isFeeExempt;\n    mapping (address => bool) private isDividendExempt;\n    mapping (address => bool) private isTxLimitExempt;\n\n    uint256 public marketingFee = 5;    // 5%\n    uint256 public developmentFee = 5;  // 5%\n    uint256 public rewardFee = 2;   // 2%\n\n    address private marketingFeeReceiver;\n    address private developmentFeeReceiver;\n\n    DividendDistributor distributor;\n    uint256 distributorGas = 500000;\n    bool inSwap;\n\n    event SwapTokensForETH(\n        uint256 amountIn,\n        address[] path\n    );\n\n    modifier lockTheSwap {\n        inSwap = true;\n        _;\n        inSwap = false;\n    }\n\n    constructor(address _router, address _marketingFeeReceiver, address _developmentFeeReceiver) {\n        // uniswapV2Router = IUniswapV2Router(0x10ED43C718714eb63d5aA57B78B54704E256024E);\n        uniswapV2Router = IUniswapV2Router(_router);\n        uniswapV2Pair = IUniswapV2Factory(uniswapV2Router.factory())\n            .createPair(address(this), uniswapV2Router.WETH());\n\n        distributor = new DividendDistributor(address(uniswapV2Router), _msgSender());\n\n        isFeeExempt[msg.sender] = true;\n        isTxLimitExempt[msg.sender] = true;\n\n        isDividendExempt[address(uniswapV2Pair)] = true;\n        isDividendExempt[address(this)] = true;\n        isDividendExempt[DEAD] = true;\n\n        marketingFeeReceiver = _marketingFeeReceiver;\n        developmentFeeReceiver = _developmentFeeReceiver;\n\n        launchedAtTimestamp = block.timestamp;\n        _balances[_msgSender()] = _currentTotalSupply;\n        emit Transfer(address(0), _msgSender(), _currentTotalSupply);\n    }\n\n    function name() public view returns (string memory) {\n        return _name;\n    }\n\n    function symbol() public view returns (string memory) {\n        return _symbol;\n    }\n\n    function decimals() public view returns (uint8) {\n        return _decimals;\n    }\n\n    function totalSupply() public view override returns (uint256) {\n        return _currentTotalSupply;\n    }\n\n    function balanceOf(address account) public view override returns (uint256) {\n        return _balances[account];\n    }\n\n    function allowance(address owner, address spender) public view override returns (uint256) {\n        return _allowances[owner][spender];\n    }\n\n    function approve(address spender, uint256 amount) public override returns (bool) {\n        _approve(_msgSender(), spender, amount);\n        return true;\n    }\n\n    function transfer(address recipient, uint256 amount) external override returns (bool) {\n        _transfer(_msgSender(), recipient, amount);\n        return true;\n    }\n\n    function transferFrom(address sender, address recipient, uint256 amount) external override returns (bool) {\n        _transfer(_msgSender(), recipient, amount);\n        _approve(sender, _msgSender(), _allowances[sender][_msgSender()].sub(amount, \"ERC20: transfer amount exceeds allowance\"));\n        return true;\n    }\n\n    function _approve(address owner, address spender, uint256 amount) private {\n        require(owner != address(0), \"ERC20: approve from the zero address\");\n        require(spender != address(0), \"ERC20: approve to the zero address\");\n\n        _allowances[owner][spender] = amount;\n        emit Approval(owner, spender, amount);\n    }\n\n    function _transfer(address sender, address recipient, uint256 amount) internal {\n        require(sender != address(0), \"ERC20: transfer from the zero address\");\n        require(recipient != address(0), \"ERC20: transfer to the zero address\");\n        require(amount > 0, \"Transfer amount must be greater than zero\");\n        checkTxLimit(sender, amount);\n\n        if(inSwap) {\n            _basicTransfer(sender, recipient, amount);\n            return;\n        }\n\n        // buy BNB and distribute\n        if (shouldSwapAndDistribute()) {\n            swapEthAndDistribute();\n        }\n\n        _balances[sender] = _balances[sender].sub(amount, \"Insufficient Balance\");\n        uint256 amountReceived;\n        if (shouldTakeFee(sender, recipient)) {\n            (uint256 transferAmount, uint256 tMarketing, uint256 tDevelopment, uint256 tReward) = calculateFee(amount);\n            _balances[recipient] = _balances[recipient].add(transferAmount);\n\n            _balances[marketingFeeReceiver] = _balances[marketingFeeReceiver].add(tMarketing);\n            _balances[developmentFeeReceiver] = _balances[developmentFeeReceiver].add(tDevelopment);\n            _balances[address(this)] = _balances[address(this)].add(tReward);\n\n            amountReceived = transferAmount;\n        } else {\n            _balances[recipient] = _balances[recipient].add(amount);\n            amountReceived = amount;\n        }\n\n        if(!isDividendExempt[sender]){ try distributor.setShare(sender, _balances[sender]) {} catch {} }\n        if(!isDividendExempt[recipient]){ try distributor.setShare(recipient, _balances[recipient]) {} catch {} }\n\n        if (address(distributor).balance >= minimumBalanceBeforeDistributeBack) {\n            try distributor.process(distributorGas) {} catch {}\n        }\n\n        unlockAnnually();\n\n        emit Transfer(sender, recipient, amountReceived);\n    }\n\n    function _basicTransfer(address sender, address recipient, uint256 amount) internal {\n        _balances[sender] = _balances[sender].sub(amount, \"Insufficient Balance\");\n        _balances[recipient] = _balances[recipient].add(amount);\n        emit Transfer(sender, recipient, amount);\n    }\n\n    function unlockAnnually() internal {\n\n    }\n\n    function checkTxLimit(address sender, uint256 amount) internal view {\n        require(amount <= _maxTxAmount || isTxLimitExempt[sender], \"TX Limit Exceeded\");\n    }\n\n    function shouldTakeFee(address sender, address recipient) internal view returns (bool) {\n        return (sender == address(uniswapV2Pair) && !isFeeExempt[sender]) ||\n            (recipient == address(uniswapV2Pair) && !isFeeExempt[recipient]);\n    }\n\n    function shouldSwapAndDistribute() internal view returns (bool) {\n        return _msgSender() != uniswapV2Pair && _balances[address(this)] > minimumTokensBeforeSwap;\n    }\n\n    function calculateFee(uint256 amount) private view returns(uint256, uint256, uint256, uint256) {\n        uint256 tMarketing = amount.mul(marketingFee).div(100);\n        uint256 tDevelopment = amount.mul(developmentFee).div(100);\n        uint256 tReward = amount.mul(rewardFee).div(100);\n        uint256 transferAmount = amount.sub(marketingFee).sub(tDevelopment).sub(tReward);\n\n        return (transferAmount, tMarketing, tDevelopment, tReward);\n    }\n\n    function swapEthAndDistribute() internal lockTheSwap {\n        swapTokensForEth(_balances[address(this)]);\n        try distributor.deposit{value: address(this).balance}() {} catch {}\n    }\n\n    function swapTokensForEth(uint256 tokenAmount) private {\n        // Generate the uniswap pair path of token -> WETH\n        address[] memory path = new address[](2);\n        path[0] = address(this);\n        path[1] = uniswapV2Router.WETH();\n\n        _approve(address(this), address(uniswapV2Router), tokenAmount);\n\n        // Make the swap\n        uniswapV2Router.swapExactTokensForETHSupportingFeeOnTransferTokens(\n            tokenAmount,\n            0, // Accept any amount of ETH\n            path,\n            address(this), // The contract\n            block.timestamp\n        );\n        \n        emit SwapTokensForETH(tokenAmount, path);\n    }\n\n    function setMinimumBalanceBeforeDistributeBack(uint256 _minimumBalanceBeforeDistributeBack) external onlyOwner {\n        minimumBalanceBeforeDistributeBack = _minimumBalanceBeforeDistributeBack;\n    }\n\n    function setIsFeeExempt(address holder, bool exempt) external onlyOwner {\n        isFeeExempt[holder] = exempt;\n    }\n\n    function setIsTxLimitExempt(address holder, bool exempt) external onlyOwner {\n        isTxLimitExempt[holder] = exempt;\n    }\n\n    function setFees(uint256 _marketingFee, uint256 _developmentFee, uint256 _rewardFee) external onlyOwner {\n        require(_marketingFee < 100 && _developmentFee < 100 && _rewardFee < 100, \"Invalid percentage\");\n        marketingFee = _marketingFee;\n        developmentFee = _developmentFee;\n        rewardFee = _rewardFee;\n    }\n\n    function setFeeReceivers(address _marketingFeeReceiver, address _developmentFeeReceiver) external onlyOwner {\n        marketingFeeReceiver = _marketingFeeReceiver;\n        developmentFeeReceiver = _developmentFeeReceiver;\n    }\n\n    function setDistributionCriteria(uint256 _minPeriod, uint256 _minDistribution) external onlyOwner {\n        distributor.setDistributionCriteria(_minPeriod, _minDistribution);\n    }\n\n    function setDistributorSettings(uint256 gas) external onlyOwner{\n        require(gas < 750000);\n        distributorGas = gas;\n    }\n    \n    function manualDistributorDeposit() external payable onlyOwner {\n        try distributor.deposit{value: msg.value}() {} catch {}\n    }\n    \n    function manualGetUnpaidShares(address _shareholder) public view {\n        distributor.getUnpaidEarnings(_shareholder);\n    }\n\n\n    function readShares(address _shareholder) external view returns (uint256) {\n        return distributor.readShares(_shareholder);\n    }\n\n    function changeRouterVersion(address _router) public onlyOwner returns(address _pair) {\n        IUniswapV2Router _uniswapV2Router = IUniswapV2Router(_router);\n        \n        _pair = IUniswapV2Factory(_uniswapV2Router.factory()).getPair(address(this), _uniswapV2Router.WETH());\n        if(_pair == address(0)){\n            // Pair doesn't exist\n            _pair = IUniswapV2Factory(_uniswapV2Router.factory())\n            .createPair(address(this), _uniswapV2Router.WETH());\n        }\n        uniswapV2Pair = _pair;\n\n        // Set the router of the contract variables\n        uniswapV2Router = _uniswapV2Router;\n    }\n\n    // To recieve BNB from pancakeV2Router when swapping\n    receive() external payable {}\n}",
  "sourcePath": "/home/rol/Desktop/digital-freaks/contracts/DigitalFreak.sol",
  "compiler": {
    "name": "solc",
    "version": "0.8.4+commit.c7e474f2.Emscripten.clang"
  },
  "schemaVersion": "3.4.1",
  "updatedAt": "2021-11-19T06:11:19.318Z",
  "devdoc": {
    "kind": "dev",
    "methods": {},
    "version": 1
  },
  "userdoc": {
    "kind": "user",
    "methods": {},
    "version": 1
  }
}